{"abi":[{"type":"constructor","inputs":[{"name":"_servicePercent","type":"uint256","internalType":"uint256"},{"name":"_subscriptionId","type":"uint256","internalType":"uint256"}],"stateMutability":"nonpayable"},{"type":"function","name":"acceptOwnership","inputs":[],"outputs":[],"stateMutability":"nonpayable"},{"type":"function","name":"buyTicket","inputs":[{"name":"id","type":"uint256","internalType":"uint256"},{"name":"luckyNumberId","type":"uint256","internalType":"uint256"}],"outputs":[],"stateMutability":"payable"},{"type":"function","name":"callbackGasLimit","inputs":[],"outputs":[{"name":"","type":"uint32","internalType":"uint32"}],"stateMutability":"view"},{"type":"function","name":"createLottery","inputs":[{"name":"title","type":"string","internalType":"string"},{"name":"description","type":"string","internalType":"string"},{"name":"image","type":"string","internalType":"string"},{"name":"prize","type":"uint256","internalType":"uint256"},{"name":"ticketPrice","type":"uint256","internalType":"uint256"},{"name":"expiresAt","type":"uint256","internalType":"uint256"}],"outputs":[],"stateMutability":"nonpayable"},{"type":"function","name":"getLotteries","inputs":[],"outputs":[{"name":"Lotteries","type":"tuple[]","internalType":"struct Lottery.LotteryStruct[]","components":[{"name":"id","type":"uint256","internalType":"uint256"},{"name":"title","type":"string","internalType":"string"},{"name":"description","type":"string","internalType":"string"},{"name":"image","type":"string","internalType":"string"},{"name":"prize","type":"uint256","internalType":"uint256"},{"name":"ticketPrice","type":"uint256","internalType":"uint256"},{"name":"participants","type":"uint256","internalType":"uint256"},{"name":"winners","type":"uint256","internalType":"uint256"},{"name":"drawn","type":"bool","internalType":"bool"},{"name":"owner","type":"address","internalType":"address"},{"name":"createdAt","type":"uint256","internalType":"uint256"},{"name":"expiresAt","type":"uint256","internalType":"uint256"},{"name":"hasLuckyNumbers","type":"bool","internalType":"bool"}]}],"stateMutability":"view"},{"type":"function","name":"getLottery","inputs":[{"name":"id","type":"uint256","internalType":"uint256"}],"outputs":[{"name":"","type":"tuple","internalType":"struct Lottery.LotteryStruct","components":[{"name":"id","type":"uint256","internalType":"uint256"},{"name":"title","type":"string","internalType":"string"},{"name":"description","type":"string","internalType":"string"},{"name":"image","type":"string","internalType":"string"},{"name":"prize","type":"uint256","internalType":"uint256"},{"name":"ticketPrice","type":"uint256","internalType":"uint256"},{"name":"participants","type":"uint256","internalType":"uint256"},{"name":"winners","type":"uint256","internalType":"uint256"},{"name":"drawn","type":"bool","internalType":"bool"},{"name":"owner","type":"address","internalType":"address"},{"name":"createdAt","type":"uint256","internalType":"uint256"},{"name":"expiresAt","type":"uint256","internalType":"uint256"},{"name":"hasLuckyNumbers","type":"bool","internalType":"bool"}]}],"stateMutability":"view"},{"type":"function","name":"getLotteryLuckyNumbers","inputs":[{"name":"id","type":"uint256","internalType":"uint256"}],"outputs":[{"name":"","type":"string[]","internalType":"string[]"}],"stateMutability":"view"},{"type":"function","name":"getLotteryParticipants","inputs":[{"name":"id","type":"uint256","internalType":"uint256"}],"outputs":[{"name":"","type":"tuple[]","internalType":"struct Lottery.ParticipantStruct[]","components":[{"name":"account","type":"address","internalType":"address"},{"name":"lotteryNumber","type":"string","internalType":"string"},{"name":"paid","type":"bool","internalType":"bool"}]}],"stateMutability":"view"},{"type":"function","name":"getLotteryResult","inputs":[{"name":"id","type":"uint256","internalType":"uint256"}],"outputs":[{"name":"","type":"tuple","internalType":"struct Lottery.LotteryResultStruct","components":[{"name":"id","type":"uint256","internalType":"uint256"},{"name":"requestId","type":"uint256","internalType":"uint256"},{"name":"completed","type":"bool","internalType":"bool"},{"name":"paidout","type":"bool","internalType":"bool"},{"name":"timestamp","type":"uint256","internalType":"uint256"},{"name":"sharePerWinner","type":"uint256","internalType":"uint256"},{"name":"winners","type":"tuple[]","internalType":"struct Lottery.ParticipantStruct[]","components":[{"name":"account","type":"address","internalType":"address"},{"name":"lotteryNumber","type":"string","internalType":"string"},{"name":"paid","type":"bool","internalType":"bool"}]},{"name":"exists","type":"bool","internalType":"bool"},{"name":"randomNumber","type":"uint256[]","internalType":"uint256[]"}]}],"stateMutability":"view"},{"type":"function","name":"getMyLotteries","inputs":[],"outputs":[{"name":"","type":"tuple[]","internalType":"struct Lottery.LotteryStruct[]","components":[{"name":"id","type":"uint256","internalType":"uint256"},{"name":"title","type":"string","internalType":"string"},{"name":"description","type":"string","internalType":"string"},{"name":"image","type":"string","internalType":"string"},{"name":"prize","type":"uint256","internalType":"uint256"},{"name":"ticketPrice","type":"uint256","internalType":"uint256"},{"name":"participants","type":"uint256","internalType":"uint256"},{"name":"winners","type":"uint256","internalType":"uint256"},{"name":"drawn","type":"bool","internalType":"bool"},{"name":"owner","type":"address","internalType":"address"},{"name":"createdAt","type":"uint256","internalType":"uint256"},{"name":"expiresAt","type":"uint256","internalType":"uint256"},{"name":"hasLuckyNumbers","type":"bool","internalType":"bool"}]}],"stateMutability":"view"},{"type":"function","name":"importLuckyNumbers","inputs":[{"name":"id","type":"uint256","internalType":"uint256"},{"name":"luckyNumbers","type":"string[]","internalType":"string[]"}],"outputs":[],"stateMutability":"nonpayable"},{"type":"function","name":"keyHash","inputs":[],"outputs":[{"name":"","type":"bytes32","internalType":"bytes32"}],"stateMutability":"view"},{"type":"function","name":"lastRequestId","inputs":[],"outputs":[{"name":"","type":"uint256","internalType":"uint256"}],"stateMutability":"view"},{"type":"function","name":"owner","inputs":[],"outputs":[{"name":"","type":"address","internalType":"address"}],"stateMutability":"view"},{"type":"function","name":"randomlySelectWinners","inputs":[{"name":"id","type":"uint256","internalType":"uint256"},{"name":"numOfWinners","type":"uint256","internalType":"uint256"}],"outputs":[{"name":"requestId","type":"uint256","internalType":"uint256"}],"stateMutability":"nonpayable"},{"type":"function","name":"rawFulfillRandomWords","inputs":[{"name":"requestId","type":"uint256","internalType":"uint256"},{"name":"randomWords","type":"uint256[]","internalType":"uint256[]"}],"outputs":[],"stateMutability":"nonpayable"},{"type":"function","name":"requestConfirmations","inputs":[],"outputs":[{"name":"","type":"uint16","internalType":"uint16"}],"stateMutability":"view"},{"type":"function","name":"s_subscriptionId","inputs":[],"outputs":[{"name":"","type":"uint256","internalType":"uint256"}],"stateMutability":"view"},{"type":"function","name":"s_vrfCoordinator","inputs":[],"outputs":[{"name":"","type":"address","internalType":"contract IVRFCoordinatorV2Plus"}],"stateMutability":"view"},{"type":"function","name":"serviceBalance","inputs":[],"outputs":[{"name":"","type":"uint256","internalType":"uint256"}],"stateMutability":"view"},{"type":"function","name":"servicePercent","inputs":[],"outputs":[{"name":"","type":"uint256","internalType":"uint256"}],"stateMutability":"view"},{"type":"function","name":"setCoordinator","inputs":[{"name":"_vrfCoordinator","type":"address","internalType":"address"}],"outputs":[],"stateMutability":"nonpayable"},{"type":"function","name":"transferOwnership","inputs":[{"name":"to","type":"address","internalType":"address"}],"outputs":[],"stateMutability":"nonpayable"},{"type":"event","name":"LotteryWinnerRequestSent","inputs":[{"name":"lotteryId","type":"uint256","indexed":false,"internalType":"uint256"},{"name":"requestId","type":"uint256","indexed":false,"internalType":"uint256"},{"name":"numWords","type":"uint32","indexed":false,"internalType":"uint32"}],"anonymous":false},{"type":"event","name":"OwnershipTransferRequested","inputs":[{"name":"from","type":"address","indexed":true,"internalType":"address"},{"name":"to","type":"address","indexed":true,"internalType":"address"}],"anonymous":false},{"type":"event","name":"OwnershipTransferred","inputs":[{"name":"from","type":"address","indexed":true,"internalType":"address"},{"name":"to","type":"address","indexed":true,"internalType":"address"}],"anonymous":false},{"type":"error","name":"OnlyCoordinatorCanFulfill","inputs":[{"name":"have","type":"address","internalType":"address"},{"name":"want","type":"address","internalType":"address"}]},{"type":"error","name":"OnlyOwnerOrCoordinator","inputs":[{"name":"have","type":"address","internalType":"address"},{"name":"owner","type":"address","internalType":"address"},{"name":"coordinator","type":"address","internalType":"address"}]},{"type":"error","name":"ReentrancyGuardReentrantCall","inputs":[]},{"type":"error","name":"ZeroAddress","inputs":[]}],"bytecode":{"object":"0x60806040527f787d74caea10b2b357790d5b5247c2f63d1d91572a9846f780606e4d953677ae600e55600f80546001600160501b03191666010003000f424017905534801561004d57600080fd5b5060405161324838038061324883398101604081905261006c916101e7565b739ddfaca8183c41ad55329bdeed9f6a8d53168b1b33806000816100d75760405162461bcd60e51b815260206004820152601860248201527f43616e6e6f7420736574206f776e657220746f207a65726f000000000000000060448201526064015b60405180910390fd5b600080546001600160a01b0319166001600160a01b0384811691909117909155811615610107576101078161013e565b5050600280546001600160a01b0319166001600160a01b039390931692909217909155506001600355600591909155600d5561020b565b336001600160a01b038216036101965760405162461bcd60e51b815260206004820152601760248201527f43616e6e6f74207472616e7366657220746f2073656c6600000000000000000060448201526064016100ce565b600180546001600160a01b0319166001600160a01b0383811691821790925560008054604051929316917fed8889f560326eb138920d842192f0eb3dd22b4f139c87a2c57538e05bae12789190a350565b600080604083850312156101fa57600080fd5b505080516020909101519092909150565b61302e8061021a6000396000f3fe6080604052600436106101405760003560e01c80638da5cb5b116100b6578063b0fb162f1161006f578063b0fb162f1461039e578063bcc82ec4146103d4578063e2e43516146103e9578063e8d490f114610409578063f2fde38b1461041f578063fc2a88c31461043f57600080fd5b80638da5cb5b146102b25780638ea98117146102e457806392e845f614610304578063949ee752146103315780639eccacf61461035e578063ad19c8391461037e57600080fd5b8063636318611161010857806363631861146101f557806368fb2eba1461021757806370b261ae1461024457806379ba50971461025a5780638772d2dd1461026f5780638ac000211461029c57600080fd5b80631fe543e31461014557806324f7469714610167578063298ec2081461019e57806335ea2063146101b157806361728f39146101d1575b600080fd5b34801561015157600080fd5b50610165610160366004612631565b610455565b005b34801561017357600080fd5b50600f546101849063ffffffff1681565b60405163ffffffff90911681526020015b60405180910390f35b6101656101ac3660046126d7565b6104a8565b3480156101bd57600080fd5b506101656101cc366004612768565b61074a565b3480156101dd57600080fd5b506101e7600e5481565b604051908152602001610195565b34801561020157600080fd5b5061020a610890565b6040516101959190612956565b34801561022357600080fd5b506102376102323660046129bb565b610c10565b6040516101959190612a5f565b34801561025057600080fd5b506101e760065481565b34801561026657600080fd5b50610165610d3c565b34801561027b57600080fd5b5061028f61028a3660046129bb565b610de6565b6040516101959190612ab5565b3480156102a857600080fd5b506101e7600d5481565b3480156102be57600080fd5b506000546001600160a01b03165b6040516001600160a01b039091168152602001610195565b3480156102f057600080fd5b506101656102ff366004612b5a565b611019565b34801561031057600080fd5b5061032461031f3660046129bb565b6110b2565b6040516101959190612b83565b34801561033d57600080fd5b5061035161034c3660046129bb565b611314565b6040516101959190612b96565b34801561036a57600080fd5b506002546102cc906001600160a01b031681565b34801561038a57600080fd5b50610165610399366004612bef565b6113f5565b3480156103aa57600080fd5b50600f546103c190640100000000900461ffff1681565b60405161ffff9091168152602001610195565b3480156103e057600080fd5b5061020a611728565b3480156103f557600080fd5b506101e76104043660046126d7565b611a24565b34801561041557600080fd5b506101e760055481565b34801561042b57600080fd5b5061016561043a366004612b5a565b611d33565b34801561044b57600080fd5b506101e760105481565b6002546001600160a01b0316331461049a5760025460405163073e64fd60e21b81523360048201526001600160a01b0390911660248201526044015b60405180910390fd5b6104a48282611d47565b5050565b6104b0611f99565b6000828152600a6020908152604080832084845290915290205460ff161561051a5760405162461bcd60e51b815260206004820152601960248201527f4c75636b79206e756d62657220616c72656164792075736564000000000000006044820152606401610491565b6000828152600760205260409020600501543410156105855760405162461bcd60e51b815260206004820152602160248201527f696e73756666696369656e742065746865727320746f20627579207469636b656044820152601d60fa1b6064820152608401610491565b60008281526007602052604090206008015460ff16156105a457600080fd5b60008281526007602052604081206006018054916105c183612cb2565b9091555050600082815260086020908152604080832081516060810183523381528685526009845291909320805491928301918590811061060457610604612ccb565b90600052602060002001805461061990612ce1565b80601f016020809104026020016040519081016040528092919081815260200182805461064590612ce1565b80156106925780601f1061066757610100808354040283529160200191610692565b820191906000526020600020905b81548152906001019060200180831161067557829003601f168201915b50505091835250506000602091820181905283546001808201865594825290829020835160039092020180546001600160a01b0319166001600160a01b039092169190911781559082015191929091908201906106ef9082612d6a565b506040918201516002909101805491151560ff199283161790556000848152600a60209081528382208583529052918220805490911660011790556006805434929061073c908490612e2b565b909155505060016003555050565b600081511161079b5760405162461bcd60e51b815260206004820152601c60248201527f4c75636b79206e756d626572732063616e6e6f74206265207a65726f000000006044820152606401610491565b60008281526007602052604090206008015461010090046001600160a01b031633146107ff5760405162461bcd60e51b8152602060048201526013602482015272556e617574686f72697a656420656e7469747960681b6044820152606401610491565b6000828152600960205260409020546001116108515760405162461bcd60e51b8152602060048201526011602482015270105b1c9958591e4819d95b995c985d1959607a1b6044820152606401610491565b600082815260096020908152604090912082516108709284019061244e565b50506000908152600760205260409020600b01805460ff19166001179055565b6060600060015b60045481116108e757600081815260076020526040902060080154336101009091046001600160a01b0316036108d557816108d181612cb2565b9250505b806108df81612cb2565b915050610897565b506000816001600160401b03811115610902576109026125c8565b60405190808252806020026020018201604052801561093b57816020015b6109286124a0565b8152602001906001900390816109205790505b509050600060015b6004548111610c0757600081815260076020526040902060080154336101009091046001600160a01b031603610bf55760076000828152602001908152602001600020604051806101a0016040529081600082015481526020016001820180546109ac90612ce1565b80601f01602080910402602001604051908101604052809291908181526020018280546109d890612ce1565b8015610a255780601f106109fa57610100808354040283529160200191610a25565b820191906000526020600020905b815481529060010190602001808311610a0857829003601f168201915b50505050508152602001600282018054610a3e90612ce1565b80601f0160208091040260200160405190810160405280929190818152602001828054610a6a90612ce1565b8015610ab75780601f10610a8c57610100808354040283529160200191610ab7565b820191906000526020600020905b815481529060010190602001808311610a9a57829003601f168201915b50505050508152602001600382018054610ad090612ce1565b80601f0160208091040260200160405190810160405280929190818152602001828054610afc90612ce1565b8015610b495780601f10610b1e57610100808354040283529160200191610b49565b820191906000526020600020905b815481529060010190602001808311610b2c57829003601f168201915b505050918352505060048201546020820152600582015460408201526006820154606082015260078201546080820152600882015460ff808216151560a08401526001600160a01b03610100928390041660c0840152600984015460e0840152600a84015491830191909152600b909201549091161515610120909101528351849084908110610bdb57610bdb612ccb565b60200260200101819052508180610bf190612cb2565b9250505b80610bff81612cb2565b915050610943565b50909392505050565b606060086000838152602001908152602001600020805480602002602001604051908101604052809291908181526020016000905b82821015610d3157600084815260209081902060408051606081019091526003850290910180546001600160a01b031682526001810180549293919291840191610c8e90612ce1565b80601f0160208091040260200160405190810160405280929190818152602001828054610cba90612ce1565b8015610d075780601f10610cdc57610100808354040283529160200191610d07565b820191906000526020600020905b815481529060010190602001808311610cea57829003601f168201915b50505091835250506002919091015460ff1615156020918201529082526001929092019101610c45565b505050509050919050565b6001546001600160a01b03163314610d8f5760405162461bcd60e51b815260206004820152601660248201527526bab9ba10313290383937b837b9b2b21037bbb732b960511b6044820152606401610491565b60008054336001600160a01b0319808316821784556001805490911690556040516001600160a01b0390921692909183917f8be0079c531659141344cd1fd0a4f28419497f9722a3daafe3b4186f6b6457e091a350565b610e3b6040518061012001604052806000815260200160008152602001600015158152602001600015158152602001600081526020016000815260200160608152602001600015158152602001606081525090565b6000828152600b6020908152604080832081516101208101835281548152600182015481850152600282015460ff808216151583860152610100909104161515606082015260038201546080820152600482015460a08201526005820180548451818702810187019095528085529195929460c0870194939192919084015b82821015610fa657600084815260209081902060408051606081019091526003850290910180546001600160a01b031682526001810180549293919291840191610f0390612ce1565b80601f0160208091040260200160405190810160405280929190818152602001828054610f2f90612ce1565b8015610f7c5780601f10610f5157610100808354040283529160200191610f7c565b820191906000526020600020905b815481529060010190602001808311610f5f57829003601f168201915b50505091835250506002919091015460ff1615156020918201529082526001929092019101610eba565b50505090825250600682015460ff161515602080830191909152600783018054604080518285028101850182528281529401939283018282801561100957602002820191906000526020600020905b815481526020019060010190808311610ff5575b5050505050815250509050919050565b6000546001600160a01b0316331480159061103f57506002546001600160a01b03163314155b1561109057336110576000546001600160a01b031690565b60025460405163061db9c160e01b81526001600160a01b0393841660048201529183166024830152919091166044820152606401610491565b600280546001600160a01b0319166001600160a01b0392909216919091179055565b6110ba6124a0565b60076000838152602001908152602001600020604051806101a0016040529081600082015481526020016001820180546110f390612ce1565b80601f016020809104026020016040519081016040528092919081815260200182805461111f90612ce1565b801561116c5780601f106111415761010080835404028352916020019161116c565b820191906000526020600020905b81548152906001019060200180831161114f57829003601f168201915b5050505050815260200160028201805461118590612ce1565b80601f01602080910402602001604051908101604052809291908181526020018280546111b190612ce1565b80156111fe5780601f106111d3576101008083540402835291602001916111fe565b820191906000526020600020905b8154815290600101906020018083116111e157829003601f168201915b5050505050815260200160038201805461121790612ce1565b80601f016020809104026020016040519081016040528092919081815260200182805461124390612ce1565b80156112905780601f1061126557610100808354040283529160200191611290565b820191906000526020600020905b81548152906001019060200180831161127357829003601f168201915b505050918352505060048201546020820152600582015460408201526006820154606082015260078201546080820152600882015460ff808216151560a08401526001600160a01b03610100928390041660c0840152600984015460e0840152600a84015491830191909152600b9092015490911615156101209091015292915050565b606060096000838152602001908152602001600020805480602002602001604051908101604052809291908181526020016000905b82821015610d3157838290600052602060002001805461136890612ce1565b80601f016020809104026020016040519081016040528092919081815260200182805461139490612ce1565b80156113e15780601f106113b6576101008083540402835291602001916113e1565b820191906000526020600020905b8154815290600101906020018083116113c457829003601f168201915b505050505081526020019060010190611349565b600086511161143e5760405162461bcd60e51b81526020600482015260156024820152747469746c652063616e6e6f7420626520656d70747960581b6044820152606401610491565b600085511161148f5760405162461bcd60e51b815260206004820152601b60248201527f6465736372697074696f6e2063616e6e6f7420626520656d70747900000000006044820152606401610491565b60008451116114d85760405162461bcd60e51b8152602060048201526015602482015274696d6167652063616e6e6f7420626520656d70747960581b6044820152606401610491565b6000831161151f5760405162461bcd60e51b81526020600482015260146024820152737072697a652063616e6e6f74206265207a65726f60601b6044820152606401610491565b6000821161156f5760405162461bcd60e51b815260206004820152601a60248201527f7469636b657450726963652063616e6e6f74206265207a65726f0000000000006044820152606401610491565b611577611fc3565b81116115d55760405162461bcd60e51b815260206004820152602760248201527f65787069726541742063616e6e6f74206265206c657373207468616e207468656044820152662066757475726560c81b6064820152608401610491565b6115df6004611fde565b6115e76124a0565b60045481526020810187905260408101869052606081018590526080810184905260a081018390523361012082015261161e611fc3565b610140820152610160810182905280516000908152600760209081526040909120825181559082015182919060018201906116599082612d6a565b506040820151600282019061166e9082612d6a565b50606082015160038201906116839082612d6a565b506080820151600482015560a0820151600582015560c0820151600682015560e08201516007820155610100808301516008830180546101208601516001600160a81b0319909116921515610100600160a81b031916929092176001600160a01b039092169092021790556101408201516009820155610160820151600a82015561018090910151600b909101805460ff191691151591909117905550505050505050565b606061173360045490565b6001600160401b0381111561174a5761174a6125c8565b60405190808252806020026020018201604052801561178357816020015b6117706124a0565b8152602001906001900390816117685790505b50905060015b6004548111611a205760076000828152602001908152602001600020604051806101a0016040529081600082015481526020016001820180546117cb90612ce1565b80601f01602080910402602001604051908101604052809291908181526020018280546117f790612ce1565b80156118445780601f1061181957610100808354040283529160200191611844565b820191906000526020600020905b81548152906001019060200180831161182757829003601f168201915b5050505050815260200160028201805461185d90612ce1565b80601f016020809104026020016040519081016040528092919081815260200182805461188990612ce1565b80156118d65780601f106118ab576101008083540402835291602001916118d6565b820191906000526020600020905b8154815290600101906020018083116118b957829003601f168201915b505050505081526020016003820180546118ef90612ce1565b80601f016020809104026020016040519081016040528092919081815260200182805461191b90612ce1565b80156119685780601f1061193d57610100808354040283529160200191611968565b820191906000526020600020905b81548152906001019060200180831161194b57829003601f168201915b505050918352505060048201546020820152600582015460408201526006820154606082015260078201546080820152600882015460ff808216151560a08401526001600160a01b03610100928390041660c0840152600984015460e0840152600a84015491830191909152600b90920154909116151561012090910152826119f2600184612e3e565b81518110611a0257611a02612ccb565b60200260200101819052508080611a1890612cb2565b915050611789565b5090565b6000611a2e611f99565b60008381526007602052604090206008015461010090046001600160a01b0316331480611a6557506000546001600160a01b031633145b611aa75760405162461bcd60e51b8152602060048201526013602482015272556e617574686f72697a656420656e7469747960681b6044820152606401610491565b6000838152600b602052604090206002015460ff1615611b155760405162461bcd60e51b815260206004820152602360248201527f4c6f7474657279206861766520616c7265616479206265656e20636f6d706c656044820152621d195960ea1b6064820152608401610491565b600083815260086020526040902054821115611b8c5760405162461bcd60e51b815260206004820152603060248201527f4e756d626572206f662077696e6e6572732065786365656473206e756d62657260448201526f206f66207061727469636970616e747360801b6064820152608401610491565b6002546040805160c081018252600e548152600d54602080830191909152600f5461ffff6401000000008204168385015263ffffffff808216606085015266010000000000009091041660808301528251908101909252600082526001600160a01b0390921691639b1c385e9160a0820190611c0790611ffb565b8152506040518263ffffffff1660e01b8152600401611c269190612e51565b6020604051808303816000875af1158015611c45573d6000803e3d6000fd5b505050506040513d601f19601f82011682018060405250810190611c699190612eb6565b6000848152600b6020908152604080832087815560028101805461ffff191690556004810184905560068101805460ff1916600190811790915590810185905581518083018352888152808401868152868652600c855294839020905181559351930192909255600f54825187815291820184905263ffffffff6601000000000000909104168183015290519192507f2bf8ed61172c3c3acdd1d362866fc15c2d4bc4bc06734dfc6f4f37ad4bff388e919081900360600190a1611d2d6001600355565b92915050565b611d3b61206c565b611d44816120c1565b50565b6000828152600c60205260409020600101548214611da75760405162461bcd60e51b815260206004820152601860248201527f4572726f723a2052657175657374206e6f7420666f756e6400000000000000006044820152606401610491565b6000828152600c602052604081205482519091906001600160401b03811115611dd257611dd26125c8565b604051908082528060200260200182016040528015611dfb578160200160208202803683370190505b50905060005b8351811015611f24576000838152600860205260409020548451859083908110611e2d57611e2d612ccb565b6020026020010151611e3f9190612ee5565b828281518110611e5157611e51612ccb565b6020908102919091018101919091526000848152600b82526040808220600890935290208351600590920191849084908110611e8f57611e8f612ccb565b602002602001015181548110611ea757611ea7612ccb565b6000918252602080832084546001818101875595855291909320600392830290930180549190920290920180546001600160a01b0319166001600160a01b039093169290921782559181810190611f0090840182612ef9565b506002918201549101805460ff191660ff9092161515919091179055600101611e01565b506000828152600b60208181526040808420600281018054600160ff19918216811790925542600384015560058301546007808752949097208085019790975560089096018054909616179094559181528551611f8993929092019190860190612515565b50611f938261216a565b50505050565b600260035403611fbc57604051633ee5aeb560e01b815260040160405180910390fd5b6002600355565b600080611fd2426103e8612fcd565b611d2d906103e8612e2b565b6001816000016000828254611ff39190612e2b565b909155505050565b60607f92fd13387c7fe7befbc38d303d6468778fb9731bc4583f17d92989c6fcfdeaaa8260405160240161203491511515815260200190565b60408051601f198184030181529190526020810180516001600160e01b03166001600160e01b03199093169290921790915292915050565b6000546001600160a01b031633146120bf5760405162461bcd60e51b815260206004820152601660248201527527b7363c9031b0b63630b1363290313c9037bbb732b960511b6044820152606401610491565b565b336001600160a01b038216036121195760405162461bcd60e51b815260206004820152601760248201527f43616e6e6f74207472616e7366657220746f2073656c660000000000000000006044820152606401610491565b600180546001600160a01b0319166001600160a01b0383811691821790925560008054604051929316917fed8889f560326eb138920d842192f0eb3dd22b4f139c87a2c57538e05bae12789190a350565b6000818152600b6020908152604080832060050180548251818502810185019093528083529192909190849084015b8282101561228557600084815260209081902060408051606081019091526003850290910180546001600160a01b0316825260018101805492939192918401916121e290612ce1565b80601f016020809104026020016040519081016040528092919081815260200182805461220e90612ce1565b801561225b5780601f106122305761010080835404028352916020019161225b565b820191906000526020600020905b81548152906001019060200180831161223e57829003601f168201915b50505091835250506002919091015460ff1615156020918201529082526001929092019101612199565b505050600084815260086020908152604080832054600790925282206005015493945090926122b49250612fcd565b905060006064600554836122c89190612fcd565b6122d29190612fe4565b905060006122e08284612e3e565b905060008451826122f19190612fe4565b905060005b85518110156123775761232686828151811061231457612314612ccb565b602002602001015160000151836123db565b6000878152600b602052604090206005018054600191908390811061234d5761234d612ccb565b60009182526020909120600390910201600201805460ff19169115159190911790556001016122f6565b5061239361238d6000546001600160a01b031690565b846123db565b83600660008282546123a59190612e3e565b90915550506000868152600b6020526040902095865560028601805461ff00191661010017905560049095019490945550505050565b6123e3611f99565b6000826001600160a01b03168260405160006040518083038185875af1925050503d8060008114612430576040519150601f19603f3d011682016040523d82523d6000602084013e612435565b606091505b505090508061244357600080fd5b506104a46001600355565b828054828255906000526020600020908101928215612494579160200282015b8281111561249457825182906124849082612d6a565b509160200191906001019061246e565b50611a2092915061255c565b604051806101a00160405280600081526020016060815260200160608152602001606081526020016000815260200160008152602001600081526020016000815260200160001515815260200160006001600160a01b0316815260200160008152602001600081526020016000151581525090565b828054828255906000526020600020908101928215612550579160200282015b82811115612550578251825591602001919060010190612535565b50611a20929150612579565b80821115611a20576000612570828261258e565b5060010161255c565b5b80821115611a20576000815560010161257a565b50805461259a90612ce1565b6000825580601f106125aa575050565b601f016020900490600052602060002090810190611d449190612579565b634e487b7160e01b600052604160045260246000fd5b604051601f8201601f191681016001600160401b0381118282101715612606576126066125c8565b604052919050565b60006001600160401b03821115612627576126276125c8565b5060051b60200190565b6000806040838503121561264457600080fd5b8235915060208301356001600160401b0381111561266157600080fd5b8301601f8101851361267257600080fd5b80356126856126808261260e565b6125de565b8082825260208201915060208360051b8501019250878311156126a757600080fd5b6020840193505b828410156126c95783358252602093840193909101906126ae565b809450505050509250929050565b600080604083850312156126ea57600080fd5b50508035926020909101359150565b600082601f83011261270a57600080fd5b81356001600160401b03811115612723576127236125c8565b612736601f8201601f19166020016125de565b81815284602083860101111561274b57600080fd5b816020850160208301376000918101602001919091529392505050565b6000806040838503121561277b57600080fd5b8235915060208301356001600160401b0381111561279857600080fd5b8301601f810185136127a957600080fd5b80356127b76126808261260e565b8082825260208201915060208360051b8501019250878311156127d957600080fd5b602084015b8381101561281a5780356001600160401b038111156127fc57600080fd5b61280b8a6020838901016126f9565b845250602092830192016127de565b50809450505050509250929050565b6000815180845260005b8181101561284f57602081850181015186830182015201612833565b506000602082860101526020601f19601f83011685010191505092915050565b80518252600060208201516101a060208501526128906101a0850182612829565b9050604083015184820360408601526128a98282612829565b915050606083015184820360608601526128c38282612829565b9150506080830151608085015260a083015160a085015260c083015160c085015260e083015160e085015261010083015161290361010086018215159052565b506101208301516129206101208601826001600160a01b03169052565b5061014083015161014085015261016083015161016085015261018083015161294e61018086018215159052565b509392505050565b6000602082016020835280845180835260408501915060408160051b86010192506020860160005b828110156129af57603f1987860301845261299a85835161286f565b9450602093840193919091019060010161297e565b50929695505050505050565b6000602082840312156129cd57600080fd5b5035919050565b600082825180855260208501945060208160051b8301016020850160005b83811015612a5357848303601f19018852815180516001600160a01b03168452602080820151606091860182905290612a2d90860182612829565b6040928301511515959092019490945260209889019890935091909101906001016129f2565b50909695505050505050565b602081526000612a7260208301846129d4565b9392505050565b600081518084526020840193506020830160005b82811015612aab578151865260209586019590910190600101612a8d565b5093949350505050565b60208152815160208201526020820151604082015260006040830151612adf606084018215159052565b506060830151801515608084015250608083015160a083015260a083015160c083015260c083015161012060e0840152612b1d6101408401826129d4565b905060e0840151612b3361010085018215159052565b50610100840151838203601f1901610120850152612b518282612a79565b95945050505050565b600060208284031215612b6c57600080fd5b81356001600160a01b0381168114612a7257600080fd5b602081526000612a72602083018461286f565b6000602082016020835280845180835260408501915060408160051b86010192506020860160005b828110156129af57603f19878603018452612bda858351612829565b94506020938401939190910190600101612bbe565b60008060008060008060c08789031215612c0857600080fd5b86356001600160401b03811115612c1e57600080fd5b612c2a89828a016126f9565b96505060208701356001600160401b03811115612c4657600080fd5b612c5289828a016126f9565b95505060408701356001600160401b03811115612c6e57600080fd5b612c7a89828a016126f9565b969995985095966060810135965060808101359560a090910135945092505050565b634e487b7160e01b600052601160045260246000fd5b600060018201612cc457612cc4612c9c565b5060010190565b634e487b7160e01b600052603260045260246000fd5b600181811c90821680612cf557607f821691505b602082108103612d1557634e487b7160e01b600052602260045260246000fd5b50919050565b601f821115612d6557806000526020600020601f840160051c81016020851015612d425750805b601f840160051c820191505b81811015612d625760008155600101612d4e565b50505b505050565b81516001600160401b03811115612d8357612d836125c8565b612d9781612d918454612ce1565b84612d1b565b6020601f821160018114612dce5760008315612db35750848201515b600184901b600019600386901b1c198216175b855550612d62565b600084815260208120601f198516915b82811015612dfe5787850151825560209485019460019092019101612dde565b5084821015612e1c5786840151600019600387901b60f8161c191681555b50505050600190811b01905550565b80820180821115611d2d57611d2d612c9c565b81810381811115611d2d57611d2d612c9c565b60208152815160208201526020820151604082015261ffff604083015116606082015263ffffffff606083015116608082015263ffffffff60808301511660a0820152600060a083015160c080840152612eae60e0840182612829565b949350505050565b600060208284031215612ec857600080fd5b5051919050565b634e487b7160e01b600052601260045260246000fd5b600082612ef457612ef4612ecf565b500690565b818103612f04575050565b612f0e8254612ce1565b6001600160401b03811115612f2557612f256125c8565b612f3381612d918454612ce1565b6000601f821160018114612f655760008315612db3575081850154600184901b600019600386901b1c19821617612dc6565b600085815260209020601f19841690600086815260209020845b83811015612f9f5782860154825560019586019590910190602001612f7f565b5085831015612fbd5781850154600019600388901b60f8161c191681555b5050505050600190811b01905550565b8082028115828204841417611d2d57611d2d612c9c565b600082612ff357612ff3612ecf565b50049056fea26469706673582212205e5bc3b60f2176feefe70fbcc782f187a1226e2c693d1eb78e7ca3c09c3e72ff64736f6c634300081a0033","linkReferences":{}},"methodIdentifiers":{"acceptOwnership()":"79ba5097","buyTicket(uint256,uint256)":"298ec208","callbackGasLimit()":"24f74697","createLottery(string,string,string,uint256,uint256,uint256)":"ad19c839","getLotteries()":"bcc82ec4","getLottery(uint256)":"92e845f6","getLotteryLuckyNumbers(uint256)":"949ee752","getLotteryParticipants(uint256)":"68fb2eba","getLotteryResult(uint256)":"8772d2dd","getMyLotteries()":"63631861","importLuckyNumbers(uint256,string[])":"35ea2063","keyHash()":"61728f39","lastRequestId()":"fc2a88c3","owner()":"8da5cb5b","randomlySelectWinners(uint256,uint256)":"e2e43516","rawFulfillRandomWords(uint256,uint256[])":"1fe543e3","requestConfirmations()":"b0fb162f","s_subscriptionId()":"8ac00021","s_vrfCoordinator()":"9eccacf6","serviceBalance()":"70b261ae","servicePercent()":"e8d490f1","setCoordinator(address)":"8ea98117","transferOwnership(address)":"f2fde38b"},"id":40}