{"abi":[{"type":"constructor","inputs":[{"name":"initMessage","type":"string","internalType":"string"}],"stateMutability":"nonpayable"},{"type":"function","name":"message","inputs":[],"outputs":[{"name":"","type":"string","internalType":"string"}],"stateMutability":"view"},{"type":"function","name":"retrieve","inputs":[],"outputs":[{"name":"","type":"string","internalType":"string"}],"stateMutability":"view"},{"type":"function","name":"update","inputs":[{"name":"newMessage","type":"string","internalType":"string"}],"outputs":[],"stateMutability":"nonpayable"},{"type":"event","name":"UpdatedMessages","inputs":[{"name":"oldStr","type":"string","indexed":false,"internalType":"string"},{"name":"newStr","type":"string","indexed":false,"internalType":"string"},{"name":"updateCount","type":"uint256","indexed":false,"internalType":"uint256"}],"anonymous":false}],"bytecode":{"object":"0x6080604052600060015534801561001557600080fd5b5060405161081e38038061081e8339810160408190526100349161005d565b600061004082826101b2565b5050610270565b634e487b7160e01b600052604160045260246000fd5b60006020828403121561006f57600080fd5b81516001600160401b0381111561008557600080fd5b8201601f8101841361009657600080fd5b80516001600160401b038111156100af576100af610047565b604051601f8201601f19908116603f011681016001600160401b03811182821017156100dd576100dd610047565b6040528181528282016020018610156100f557600080fd5b60005b82811015610114576020818501810151838301820152016100f8565b50600091810160200191909152949350505050565b600181811c9082168061013d57607f821691505b60208210810361015d57634e487b7160e01b600052602260045260246000fd5b50919050565b601f8211156101ad57806000526020600020601f840160051c8101602085101561018a5750805b601f840160051c820191505b818110156101aa5760008155600101610196565b50505b505050565b81516001600160401b038111156101cb576101cb610047565b6101df816101d98454610129565b84610163565b6020601f82116001811461021357600083156101fb5750848201515b600019600385901b1c1916600184901b1784556101aa565b600084815260208120601f198516915b828110156102435787850151825560209485019460019092019101610223565b50848210156102615786840151600019600387901b60f8161c191681555b50505050600190811b01905550565b61059f8061027f6000396000f3fe608060405234801561001057600080fd5b50600436106100415760003560e01c80632e64cec1146100465780633d7403a314610064578063e21f37ce14610079575b600080fd5b61004e610081565b60405161005b91906102db565b60405180910390f35b61007761007236600461030b565b610113565b005b61004e610207565b606060008054610090906103c4565b80601f01602080910402602001604051908101604052809291908181526020018280546100bc906103c4565b80156101095780601f106100de57610100808354040283529160200191610109565b820191906000526020600020905b8154815290600101906020018083116100ec57829003601f168201915b5050505050905090565b6000808054610121906103c4565b80601f016020809104026020016040519081016040528092919081815260200182805461014d906103c4565b801561019a5780601f1061016f5761010080835404028352916020019161019a565b820191906000526020600020905b81548152906001019060200180831161017d57829003601f168201915b5050505050905081600090816101b0919061044d565b50600180549060006101c18361050c565b91905055507f71b11d076d9337437ed2a6b713d6e3b996947e95ddcab8569f1d602986c4902281836001546040516101fb93929190610533565b60405180910390a15050565b60008054610214906103c4565b80601f0160208091040260200160405190810160405280929190818152602001828054610240906103c4565b801561028d5780601f106102625761010080835404028352916020019161028d565b820191906000526020600020905b81548152906001019060200180831161027057829003601f168201915b505050505081565b6000815180845260005b818110156102bb5760208185018101518683018201520161029f565b506000602082860101526020601f19601f83011685010191505092915050565b6020815260006102ee6020830184610295565b9392505050565b634e487b7160e01b600052604160045260246000fd5b60006020828403121561031d57600080fd5b813567ffffffffffffffff81111561033457600080fd5b8201601f8101841361034557600080fd5b803567ffffffffffffffff81111561035f5761035f6102f5565b604051601f8201601f19908116603f0116810167ffffffffffffffff8111828210171561038e5761038e6102f5565b6040528181528282016020018610156103a657600080fd5b81602084016020830137600091810160200191909152949350505050565b600181811c908216806103d857607f821691505b6020821081036103f857634e487b7160e01b600052602260045260246000fd5b50919050565b601f82111561044857806000526020600020601f840160051c810160208510156104255750805b601f840160051c820191505b818110156104455760008155600101610431565b50505b505050565b815167ffffffffffffffff811115610467576104676102f5565b61047b8161047584546103c4565b846103fe565b6020601f8211600181146104af57600083156104975750848201515b600019600385901b1c1916600184901b178455610445565b600084815260208120601f198516915b828110156104df57878501518255602094850194600190920191016104bf565b50848210156104fd5786840151600019600387901b60f8161c191681555b50505050600190811b01905550565b60006001820161052c57634e487b7160e01b600052601160045260246000fd5b5060010190565b6060815260006105466060830186610295565b82810360208401526105588186610295565b91505082604083015294935050505056fea2646970667358221220a2da72cfeb65f2df317ac67a551ec9e83671b5e53ee529911163787037f4374c64736f6c634300081a0033","linkReferences":{}},"methodIdentifiers":{"message()":"e21f37ce","retrieve()":"2e64cec1","update(string)":"3d7403a3"},"id":0}