{"abi":[{"type":"constructor","inputs":[{"name":"_servicePercent","type":"uint256","internalType":"uint256"},{"name":"_subscriptionId","type":"uint256","internalType":"uint256"}],"stateMutability":"nonpayable"},{"type":"function","name":"acceptOwnership","inputs":[],"outputs":[],"stateMutability":"nonpayable"},{"type":"function","name":"buyTicket","inputs":[{"name":"id","type":"uint256","internalType":"uint256"},{"name":"luckyNumberId","type":"uint256","internalType":"uint256"}],"outputs":[],"stateMutability":"payable"},{"type":"function","name":"callbackGasLimit","inputs":[],"outputs":[{"name":"","type":"uint32","internalType":"uint32"}],"stateMutability":"view"},{"type":"function","name":"createLottery","inputs":[{"name":"title","type":"string","internalType":"string"},{"name":"description","type":"string","internalType":"string"},{"name":"image","type":"string","internalType":"string"},{"name":"ticketPrice","type":"uint256","internalType":"uint256"},{"name":"expiresAt","type":"uint256","internalType":"uint256"}],"outputs":[],"stateMutability":"nonpayable"},{"type":"function","name":"getLotteries","inputs":[],"outputs":[{"name":"Lotteries","type":"tuple[]","internalType":"struct Lottery.LotteryStruct[]","components":[{"name":"id","type":"uint256","internalType":"uint256"},{"name":"title","type":"string","internalType":"string"},{"name":"description","type":"string","internalType":"string"},{"name":"image","type":"string","internalType":"string"},{"name":"ticketPrice","type":"uint256","internalType":"uint256"},{"name":"participants","type":"uint256","internalType":"uint256"},{"name":"winners","type":"uint256","internalType":"uint256"},{"name":"drawn","type":"bool","internalType":"bool"},{"name":"owner","type":"address","internalType":"address"},{"name":"createdAt","type":"uint256","internalType":"uint256"},{"name":"expiresAt","type":"uint256","internalType":"uint256"},{"name":"hasLuckyNumbers","type":"bool","internalType":"bool"}]}],"stateMutability":"view"},{"type":"function","name":"getLottery","inputs":[{"name":"id","type":"uint256","internalType":"uint256"}],"outputs":[{"name":"","type":"tuple","internalType":"struct Lottery.LotteryStruct","components":[{"name":"id","type":"uint256","internalType":"uint256"},{"name":"title","type":"string","internalType":"string"},{"name":"description","type":"string","internalType":"string"},{"name":"image","type":"string","internalType":"string"},{"name":"ticketPrice","type":"uint256","internalType":"uint256"},{"name":"participants","type":"uint256","internalType":"uint256"},{"name":"winners","type":"uint256","internalType":"uint256"},{"name":"drawn","type":"bool","internalType":"bool"},{"name":"owner","type":"address","internalType":"address"},{"name":"createdAt","type":"uint256","internalType":"uint256"},{"name":"expiresAt","type":"uint256","internalType":"uint256"},{"name":"hasLuckyNumbers","type":"bool","internalType":"bool"}]}],"stateMutability":"view"},{"type":"function","name":"getLotteryLuckyNumbers","inputs":[{"name":"id","type":"uint256","internalType":"uint256"}],"outputs":[{"name":"","type":"string[]","internalType":"string[]"}],"stateMutability":"view"},{"type":"function","name":"getLotteryParticipants","inputs":[{"name":"id","type":"uint256","internalType":"uint256"}],"outputs":[{"name":"","type":"tuple[]","internalType":"struct Lottery.ParticipantStruct[]","components":[{"name":"account","type":"address","internalType":"address"},{"name":"lotteryNumber","type":"string","internalType":"string"},{"name":"paid","type":"bool","internalType":"bool"}]}],"stateMutability":"view"},{"type":"function","name":"getLotteryResult","inputs":[{"name":"id","type":"uint256","internalType":"uint256"}],"outputs":[{"name":"","type":"tuple","internalType":"struct Lottery.LotteryResultStruct","components":[{"name":"id","type":"uint256","internalType":"uint256"},{"name":"requestId","type":"uint256","internalType":"uint256"},{"name":"completed","type":"bool","internalType":"bool"},{"name":"paidout","type":"bool","internalType":"bool"},{"name":"timestamp","type":"uint256","internalType":"uint256"},{"name":"sharePerWinner","type":"uint256","internalType":"uint256"},{"name":"winners","type":"tuple[]","internalType":"struct Lottery.ParticipantStruct[]","components":[{"name":"account","type":"address","internalType":"address"},{"name":"lotteryNumber","type":"string","internalType":"string"},{"name":"paid","type":"bool","internalType":"bool"}]},{"name":"exists","type":"bool","internalType":"bool"},{"name":"randomNumber","type":"uint256[]","internalType":"uint256[]"},{"name":"requestToChainlinkSent","type":"bool","internalType":"bool"}]}],"stateMutability":"view"},{"type":"function","name":"getMyLotteries","inputs":[],"outputs":[{"name":"","type":"tuple[]","internalType":"struct Lottery.LotteryStruct[]","components":[{"name":"id","type":"uint256","internalType":"uint256"},{"name":"title","type":"string","internalType":"string"},{"name":"description","type":"string","internalType":"string"},{"name":"image","type":"string","internalType":"string"},{"name":"ticketPrice","type":"uint256","internalType":"uint256"},{"name":"participants","type":"uint256","internalType":"uint256"},{"name":"winners","type":"uint256","internalType":"uint256"},{"name":"drawn","type":"bool","internalType":"bool"},{"name":"owner","type":"address","internalType":"address"},{"name":"createdAt","type":"uint256","internalType":"uint256"},{"name":"expiresAt","type":"uint256","internalType":"uint256"},{"name":"hasLuckyNumbers","type":"bool","internalType":"bool"}]}],"stateMutability":"view"},{"type":"function","name":"importLuckyNumbers","inputs":[{"name":"id","type":"uint256","internalType":"uint256"},{"name":"luckyNumbers","type":"string[]","internalType":"string[]"}],"outputs":[],"stateMutability":"nonpayable"},{"type":"function","name":"keyHash","inputs":[],"outputs":[{"name":"","type":"bytes32","internalType":"bytes32"}],"stateMutability":"view"},{"type":"function","name":"lastRequestId","inputs":[],"outputs":[{"name":"","type":"uint256","internalType":"uint256"}],"stateMutability":"view"},{"type":"function","name":"owner","inputs":[],"outputs":[{"name":"","type":"address","internalType":"address"}],"stateMutability":"view"},{"type":"function","name":"randomlySelectWinners","inputs":[{"name":"id","type":"uint256","internalType":"uint256"},{"name":"numOfWinners","type":"uint256","internalType":"uint256"}],"outputs":[{"name":"requestId","type":"uint256","internalType":"uint256"}],"stateMutability":"nonpayable"},{"type":"function","name":"rawFulfillRandomWords","inputs":[{"name":"requestId","type":"uint256","internalType":"uint256"},{"name":"randomWords","type":"uint256[]","internalType":"uint256[]"}],"outputs":[],"stateMutability":"nonpayable"},{"type":"function","name":"requestConfirmations","inputs":[],"outputs":[{"name":"","type":"uint16","internalType":"uint16"}],"stateMutability":"view"},{"type":"function","name":"s_subscriptionId","inputs":[],"outputs":[{"name":"","type":"uint256","internalType":"uint256"}],"stateMutability":"view"},{"type":"function","name":"s_vrfCoordinator","inputs":[],"outputs":[{"name":"","type":"address","internalType":"contract IVRFCoordinatorV2Plus"}],"stateMutability":"view"},{"type":"function","name":"serviceBalance","inputs":[],"outputs":[{"name":"","type":"uint256","internalType":"uint256"}],"stateMutability":"view"},{"type":"function","name":"servicePercent","inputs":[],"outputs":[{"name":"","type":"uint256","internalType":"uint256"}],"stateMutability":"view"},{"type":"function","name":"setCoordinator","inputs":[{"name":"_vrfCoordinator","type":"address","internalType":"address"}],"outputs":[],"stateMutability":"nonpayable"},{"type":"function","name":"transferOwnership","inputs":[{"name":"to","type":"address","internalType":"address"}],"outputs":[],"stateMutability":"nonpayable"},{"type":"event","name":"BuyTicketEvent","inputs":[{"name":"id","type":"uint256","indexed":false,"internalType":"uint256"},{"name":"account","type":"address","indexed":false,"internalType":"address"},{"name":"lotteryNumber","type":"string","indexed":false,"internalType":"string"}],"anonymous":false},{"type":"event","name":"LotteryCreated","inputs":[{"name":"id","type":"uint256","indexed":false,"internalType":"uint256"},{"name":"title","type":"string","indexed":false,"internalType":"string"},{"name":"description","type":"string","indexed":false,"internalType":"string"},{"name":"image","type":"string","indexed":false,"internalType":"string"},{"name":"ticketPrice","type":"uint256","indexed":false,"internalType":"uint256"},{"name":"expiresAt","type":"uint256","indexed":false,"internalType":"uint256"}],"anonymous":false},{"type":"event","name":"LotteryLuckyNumbersImported","inputs":[{"name":"id","type":"uint256","indexed":false,"internalType":"uint256"},{"name":"luckyNumbers","type":"string[]","indexed":false,"internalType":"string[]"}],"anonymous":false},{"type":"event","name":"LotteryWinnerPaid","inputs":[{"name":"lotteryId","type":"uint256","indexed":false,"internalType":"uint256"},{"name":"amount","type":"uint256","indexed":false,"internalType":"uint256"},{"name":"platformShare","type":"uint256","indexed":false,"internalType":"uint256"}],"anonymous":false},{"type":"event","name":"LotteryWinnerRequestSent","inputs":[{"name":"lotteryId","type":"uint256","indexed":false,"internalType":"uint256"},{"name":"String","type":"uint256","indexed":false,"internalType":"uint256"},{"name":"numOfWinners","type":"uint32","indexed":false,"internalType":"uint32"}],"anonymous":false},{"type":"event","name":"LotteryWinnerSelected","inputs":[{"name":"lotteryId","type":"uint256","indexed":false,"internalType":"uint256"},{"name":"String","type":"uint256","indexed":false,"internalType":"uint256"},{"name":"randomWords","type":"uint256[]","indexed":false,"internalType":"uint256[]"}],"anonymous":false},{"type":"event","name":"OwnershipTransferRequested","inputs":[{"name":"from","type":"address","indexed":true,"internalType":"address"},{"name":"to","type":"address","indexed":true,"internalType":"address"}],"anonymous":false},{"type":"event","name":"OwnershipTransferred","inputs":[{"name":"from","type":"address","indexed":true,"internalType":"address"},{"name":"to","type":"address","indexed":true,"internalType":"address"}],"anonymous":false},{"type":"error","name":"OnlyCoordinatorCanFulfill","inputs":[{"name":"have","type":"address","internalType":"address"},{"name":"want","type":"address","internalType":"address"}]},{"type":"error","name":"OnlyOwnerOrCoordinator","inputs":[{"name":"have","type":"address","internalType":"address"},{"name":"owner","type":"address","internalType":"address"},{"name":"coordinator","type":"address","internalType":"address"}]},{"type":"error","name":"ReentrancyGuardReentrantCall","inputs":[]},{"type":"error","name":"ZeroAddress","inputs":[]}],"bytecode":{"object":"0x60806040527f787d74caea10b2b357790d5b5247c2f63d1d91572a9846f780606e4d953677ae600e55600f80546001600160501b03191666010003000f424017905534801561004d57600080fd5b506040516134e53803806134e583398101604081905261006c916101e7565b739ddfaca8183c41ad55329bdeed9f6a8d53168b1b33806000816100d75760405162461bcd60e51b815260206004820152601860248201527f43616e6e6f7420736574206f776e657220746f207a65726f000000000000000060448201526064015b60405180910390fd5b600080546001600160a01b0319166001600160a01b0384811691909117909155811615610107576101078161013e565b5050600280546001600160a01b0319166001600160a01b039390931692909217909155506001600355600b91909155600d5561020b565b336001600160a01b038216036101965760405162461bcd60e51b815260206004820152601760248201527f43616e6e6f74207472616e7366657220746f2073656c6600000000000000000060448201526064016100ce565b600180546001600160a01b0319166001600160a01b0383811691821790925560008054604051929316917fed8889f560326eb138920d842192f0eb3dd22b4f139c87a2c57538e05bae12789190a350565b600080604083850312156101fa57600080fd5b505080516020909101519092909150565b6132cb8061021a6000396000f3fe6080604052600436106101405760003560e01c80638ac00021116100b6578063b0fb162f1161006f578063b0fb162f1461039e578063bcc82ec4146103d4578063e2e43516146103e9578063e8d490f114610409578063f2fde38b1461041f578063fc2a88c31461043f57600080fd5b80638ac00021146102bc5780638da5cb5b146102d25780638ea981171461030457806392e845f614610324578063949ee752146103515780639eccacf61461037e57600080fd5b806361728f391161010857806361728f39146101f1578063636318611461021557806368fb2eba1461023757806370b261ae1461026457806379ba50971461027a5780638772d2dd1461028f57600080fd5b80631fe543e31461014557806324f7469714610167578063298ec2081461019e57806334699f9f146101b157806335ea2063146101d1575b600080fd5b34801561015157600080fd5b50610165610160366004612790565b610455565b005b34801561017357600080fd5b50600f546101849063ffffffff1681565b60405163ffffffff90911681526020015b60405180910390f35b6101656101ac366004612836565b6104a8565b3480156101bd57600080fd5b506101656101cc3660046128c7565b6107b4565b3480156101dd57600080fd5b506101656101ec36600461296a565b610ae5565b3480156101fd57600080fd5b50610207600e5481565b604051908152602001610195565b34801561022157600080fd5b5061022a610c66565b6040516101959190612b4c565b34801561024357600080fd5b50610257610252366004612bb1565b610fd6565b6040516101959190612c55565b34801561027057600080fd5b50610207600c5481565b34801561028657600080fd5b50610165611102565b34801561029b57600080fd5b506102af6102aa366004612bb1565b6111ac565b6040516101959190612cab565b3480156102c857600080fd5b50610207600d5481565b3480156102de57600080fd5b506000546001600160a01b03165b6040516001600160a01b039091168152602001610195565b34801561031057600080fd5b5061016561031f366004612d5f565b6113f8565b34801561033057600080fd5b5061034461033f366004612bb1565b611491565b6040516101959190612d88565b34801561035d57600080fd5b5061037161036c366004612bb1565b6116e3565b6040516101959190612deb565b34801561038a57600080fd5b506002546102ec906001600160a01b031681565b3480156103aa57600080fd5b50600f546103c190640100000000900461ffff1681565b60405161ffff9091168152602001610195565b3480156103e057600080fd5b5061022a6117c4565b3480156103f557600080fd5b50610207610404366004612836565b611ab0565b34801561041557600080fd5b50610207600b5481565b34801561042b57600080fd5b5061016561043a366004612d5f565b611e26565b34801561044b57600080fd5b5061020760105481565b6002546001600160a01b0316331461049a5760025460405163073e64fd60e21b81523360048201526001600160a01b0390911660248201526044015b60405180910390fd5b6104a48282611e3a565b5050565b6104b06120c7565b600082815260076020908152604080832084845290915290205460ff161561051a5760405162461bcd60e51b815260206004820152601960248201527f4c75636b79206e756d62657220616c72656164792075736564000000000000006044820152606401610491565b600082815260046020819052604090912001543410156105865760405162461bcd60e51b815260206004820152602160248201527f696e73756666696369656e742065746865727320746f20627579207469636b656044820152601d60fa1b6064820152608401610491565b60008281526004602052604090206007015460ff16156105a557600080fd5b60008281526004602052604081206005018054916105c283612e14565b9091555050600082815260056020908152604080832081516060810183523381528685526006845291909320805491928301918590811061060557610605612e2d565b90600052602060002001805461061a90612e43565b80601f016020809104026020016040519081016040528092919081815260200182805461064690612e43565b80156106935780601f1061066857610100808354040283529160200191610693565b820191906000526020600020905b81548152906001019060200180831161067657829003601f168201915b50505091835250506000602091820181905283546001808201865594825290829020835160039092020180546001600160a01b0319166001600160a01b039092169190911781559082015191929091908201906106f09082612ecc565b506040918201516002909101805491151560ff19928316179055600084815260076020908152838220858352905291822080549091166001179055600c805434929061073d908490612f8d565b9091555050600082815260066020526040902080547fb038c33b89212f7a1829dcd93ab75ac1efd79ffe1cb2177b3573d1901b96de609184913391908590811061078957610789612e2d565b906000526020600020016040516107a293929190612fa0565b60405180910390a16104a46001600355565b60008551116107fd5760405162461bcd60e51b81526020600482015260156024820152747469746c652063616e6e6f7420626520656d70747960581b6044820152606401610491565b600084511161084e5760405162461bcd60e51b815260206004820152601b60248201527f6465736372697074696f6e2063616e6e6f7420626520656d70747900000000006044820152606401610491565b60008351116108975760405162461bcd60e51b8152602060048201526015602482015274696d6167652063616e6e6f7420626520656d70747960581b6044820152606401610491565b600082116108e75760405162461bcd60e51b815260206004820152601a60248201527f7469636b657450726963652063616e6e6f74206265207a65726f0000000000006044820152606401610491565b6108ef6120f1565b811161094d5760405162461bcd60e51b815260206004820152602760248201527f65787069726541742063616e6e6f74206265206c657373207468616e207468656044820152662066757475726560c81b6064820152608401610491565b610957600a61210c565b61095f6125b4565b600a548152602081018690526040810185905260608101849052608081018390523361010082015261098f6120f1565b610120820152610140810182905280516000908152600460209081526040909120825181559082015182919060018201906109ca9082612ecc565b50604082015160028201906109df9082612ecc565b50606082015160038201906109f49082612ecc565b50608082810151600483015560a0830151600583015560c0830151600683015560e0830151600783018054610100808701516001600160a01b031602610100600160a81b0319931515939093166001600160a81b031990911617919091179055610120830151600883015561014080840151600984015561016090930151600a909201805492151560ff199390931692909217909155825160208401516040808601516060870151948701519587015191517f503b6ed02521d6a8bdbb85bb46f25b7683e00da579b50aebb7aa803eed871a0696610ad59692939091613045565b60405180910390a1505050505050565b6000815111610b365760405162461bcd60e51b815260206004820152601c60248201527f4c75636b79206e756d626572732063616e6e6f74206265207a65726f000000006044820152606401610491565b60008281526004602052604090206007015461010090046001600160a01b03163314610b9a5760405162461bcd60e51b8152602060048201526013602482015272556e617574686f72697a656420656e7469747960681b6044820152606401610491565b600082815260066020526040902054600111610bec5760405162461bcd60e51b8152602060048201526011602482015270105b1c9958591e4819d95b995c985d1959607a1b6044820152606401610491565b60008281526006602090815260409091208251610c0b92840190612622565b5060008281526004602052604090819020600a01805460ff19166001179055517ff12520cc42a124dbda697c7bebc19d583fec057b0ad21f3ac39864a21b756ca990610c5a908490849061309a565b60405180910390a15050565b6060600060015b600a548111610cbd57600081815260046020526040902060070154336101009091046001600160a01b031603610cab5781610ca781612e14565b9250505b80610cb581612e14565b915050610c6d565b506000816001600160401b03811115610cd857610cd8612727565b604051908082528060200260200182016040528015610d1157816020015b610cfe6125b4565b815260200190600190039081610cf65790505b509050600060015b600a548111610fcd57600081815260046020526040902060070154336101009091046001600160a01b031603610fbb57600460008281526020019081526020016000206040518061018001604052908160008201548152602001600182018054610d8290612e43565b80601f0160208091040260200160405190810160405280929190818152602001828054610dae90612e43565b8015610dfb5780601f10610dd057610100808354040283529160200191610dfb565b820191906000526020600020905b815481529060010190602001808311610dde57829003601f168201915b50505050508152602001600282018054610e1490612e43565b80601f0160208091040260200160405190810160405280929190818152602001828054610e4090612e43565b8015610e8d5780601f10610e6257610100808354040283529160200191610e8d565b820191906000526020600020905b815481529060010190602001808311610e7057829003601f168201915b50505050508152602001600382018054610ea690612e43565b80601f0160208091040260200160405190810160405280929190818152602001828054610ed290612e43565b8015610f1f5780601f10610ef457610100808354040283529160200191610f1f565b820191906000526020600020905b815481529060010190602001808311610f0257829003601f168201915b5050509183525050600482015460208201526005820154604082015260068201546060820152600782015460ff808216151560808401526001600160a01b03610100928390041660a0840152600884015460c0840152600984015460e0840152600a9093015490921615159101528351849084908110610fa157610fa1612e2d565b60200260200101819052508180610fb790612e14565b9250505b80610fc581612e14565b915050610d19565b50909392505050565b606060056000838152602001908152602001600020805480602002602001604051908101604052809291908181526020016000905b828210156110f757600084815260209081902060408051606081019091526003850290910180546001600160a01b03168252600181018054929391929184019161105490612e43565b80601f016020809104026020016040519081016040528092919081815260200182805461108090612e43565b80156110cd5780601f106110a2576101008083540402835291602001916110cd565b820191906000526020600020905b8154815290600101906020018083116110b057829003601f168201915b50505091835250506002919091015460ff161515602091820152908252600192909201910161100b565b505050509050919050565b6001546001600160a01b031633146111555760405162461bcd60e51b815260206004820152601660248201527526bab9ba10313290383937b837b9b2b21037bbb732b960511b6044820152606401610491565b60008054336001600160a01b0319808316821784556001805490911690556040516001600160a01b0390921692909183917f8be0079c531659141344cd1fd0a4f28419497f9722a3daafe3b4186f6b6457e091a350565b61120a6040518061014001604052806000815260200160008152602001600015158152602001600015158152602001600081526020016000815260200160608152602001600015158152602001606081526020016000151581525090565b600082815260086020908152604080832081516101408101835281548152600182015481850152600282015460ff808216151583860152610100909104161515606082015260038201546080820152600482015460a08201526005820180548451818702810187019095528085529195929460c0870194939192919084015b8282101561137557600084815260209081902060408051606081019091526003850290910180546001600160a01b0316825260018101805492939192918401916112d290612e43565b80601f01602080910402602001604051908101604052809291908181526020018280546112fe90612e43565b801561134b5780601f106113205761010080835404028352916020019161134b565b820191906000526020600020905b81548152906001019060200180831161132e57829003601f168201915b50505091835250506002919091015460ff1615156020918201529082526001929092019101611289565b50505090825250600682015460ff16151560208083019190915260078301805460408051828502810185018252828152940193928301828280156113d857602002820191906000526020600020905b8154815260200190600101908083116113c4575b50505091835250506008919091015460ff16151560209091015292915050565b6000546001600160a01b0316331480159061141e57506002546001600160a01b03163314155b1561146f57336114366000546001600160a01b031690565b60025460405163061db9c160e01b81526001600160a01b0393841660048201529183166024830152919091166044820152606401610491565b600280546001600160a01b0319166001600160a01b0392909216919091179055565b6114996125b4565b6004600083815260200190815260200160002060405180610180016040529081600082015481526020016001820180546114d290612e43565b80601f01602080910402602001604051908101604052809291908181526020018280546114fe90612e43565b801561154b5780601f106115205761010080835404028352916020019161154b565b820191906000526020600020905b81548152906001019060200180831161152e57829003601f168201915b5050505050815260200160028201805461156490612e43565b80601f016020809104026020016040519081016040528092919081815260200182805461159090612e43565b80156115dd5780601f106115b2576101008083540402835291602001916115dd565b820191906000526020600020905b8154815290600101906020018083116115c057829003601f168201915b505050505081526020016003820180546115f690612e43565b80601f016020809104026020016040519081016040528092919081815260200182805461162290612e43565b801561166f5780601f106116445761010080835404028352916020019161166f565b820191906000526020600020905b81548152906001019060200180831161165257829003601f168201915b5050509183525050600482015460208201526005820154604082015260068201546060820152600782015460ff808216151560808401526001600160a01b03610100928390041660a0840152600884015460c0840152600984015460e0840152600a90930154909216151591015292915050565b606060066000838152602001908152602001600020805480602002602001604051908101604052809291908181526020016000905b828210156110f757838290600052602060002001805461173790612e43565b80601f016020809104026020016040519081016040528092919081815260200182805461176390612e43565b80156117b05780601f10611785576101008083540402835291602001916117b0565b820191906000526020600020905b81548152906001019060200180831161179357829003601f168201915b505050505081526020019060010190611718565b60606117cf600a5490565b6001600160401b038111156117e6576117e6612727565b60405190808252806020026020018201604052801561181f57816020015b61180c6125b4565b8152602001906001900390816118045790505b50905060015b600a548111611aac5760046000828152602001908152602001600020604051806101800160405290816000820154815260200160018201805461186790612e43565b80601f016020809104026020016040519081016040528092919081815260200182805461189390612e43565b80156118e05780601f106118b5576101008083540402835291602001916118e0565b820191906000526020600020905b8154815290600101906020018083116118c357829003601f168201915b505050505081526020016002820180546118f990612e43565b80601f016020809104026020016040519081016040528092919081815260200182805461192590612e43565b80156119725780601f1061194757610100808354040283529160200191611972565b820191906000526020600020905b81548152906001019060200180831161195557829003601f168201915b5050505050815260200160038201805461198b90612e43565b80601f01602080910402602001604051908101604052809291908181526020018280546119b790612e43565b8015611a045780601f106119d957610100808354040283529160200191611a04565b820191906000526020600020905b8154815290600101906020018083116119e757829003601f168201915b5050509183525050600482015460208201526005820154604082015260068201546060820152600782015460ff808216151560808401526001600160a01b03610100928390041660a0840152600884015460c0840152600984015460e0840152600a90930154909216151591015282611a7e6001846130bb565b81518110611a8e57611a8e612e2d565b60200260200101819052508080611aa490612e14565b915050611825565b5090565b6000611aba6120c7565b60008381526004602052604090206007015461010090046001600160a01b0316331480611af157506000546001600160a01b031633145b611b335760405162461bcd60e51b8152602060048201526013602482015272556e617574686f72697a656420656e7469747960681b6044820152606401610491565b60008381526008602052604090206002015460ff1615611ba15760405162461bcd60e51b815260206004820152602360248201527f4c6f7474657279206861766520616c7265616479206265656e20636f6d706c656044820152621d195960ea1b6064820152608401610491565b600083815260056020526040902054821115611c185760405162461bcd60e51b815260206004820152603060248201527f4e756d626572206f662077696e6e6572732065786365656473206e756d62657260448201526f206f66207061727469636970616e747360801b6064820152608401610491565b6000838152600860208190526040909120015460ff1615611c855760405162461bcd60e51b815260206004820152602160248201527f5265717565737420746f20636861696e6c696e6b20616c72656164792073656e6044820152601d60fa1b6064820152608401610491565b6002546040805160c081018252600e548152600d54602080830191909152600f5461ffff6401000000008204168385015263ffffffff9081166060840152861660808301528251908101909252600082526001600160a01b0390921691639b1c385e9160a0820190611cf690612129565b8152506040518263ffffffff1660e01b8152600401611d1591906130ce565b6020604051808303816000875af1158015611d34573d6000803e3d6000fd5b505050506040513d601f19601f82011682018060405250810190611d58919061312b565b600084815260086020818152604080842088815560028101805461ffff191690556004810185905560068101805460ff199081166001908117909255818301889055919094018054909116841790558051808201825288815280830186815286865260098452948290209051815593519390920192909255805186815291820183905263ffffffff8516908201529091507f2bf8ed61172c3c3acdd1d362866fc15c2d4bc4bc06734dfc6f4f37ad4bff388e9060600160405180910390a1611e206001600355565b92915050565b611e2e61219a565b611e37816121ef565b50565b6000828152600960205260409020600101548214611e9a5760405162461bcd60e51b815260206004820152601860248201527f4572726f723a2052657175657374206e6f7420666f756e6400000000000000006044820152606401610491565b60008281526009602052604081205482519091906001600160401b03811115611ec557611ec5612727565b604051908082528060200260200182016040528015611eee578160200160208202803683370190505b50905060005b8351811015612017576000838152600560205260409020548451859083908110611f2057611f20612e2d565b6020026020010151611f32919061315a565b828281518110611f4457611f44612e2d565b6020908102919091018101919091526000848152600882526040808220600593849052912084519290910191849084908110611f8257611f82612e2d565b602002602001015181548110611f9a57611f9a612e2d565b6000918252602080832084546001818101875595855291909320600392830290930180549190920290920180546001600160a01b0319166001600160a01b039093169290921782559181810190611ff39084018261316e565b506002918201549101805460ff191660ff9092161515919091179055600101611ef4565b506000828152600860208181526040808420600281018054600160ff1991821681179092554260038401556005830154600486529390962060068101939093556007928301805490961617909455918152855161207c93929092019190860190612674565b5061208682612298565b7f68c2f849c1d27050ebe6de60f1dc43a424265a179fab9b4aa6237f95e1a4e1e38285856040516120b993929190613242565b60405180910390a150505050565b6002600354036120ea57604051633ee5aeb560e01b815260040160405180910390fd5b6002600355565b600080612100426103e861326a565b611e20906103e8612f8d565b60018160000160008282546121219190612f8d565b909155505050565b60607f92fd13387c7fe7befbc38d303d6468778fb9731bc4583f17d92989c6fcfdeaaa8260405160240161216291511515815260200190565b60408051601f198184030181529190526020810180516001600160e01b03166001600160e01b03199093169290921790915292915050565b6000546001600160a01b031633146121ed5760405162461bcd60e51b815260206004820152601660248201527527b7363c9031b0b63630b1363290313c9037bbb732b960511b6044820152606401610491565b565b336001600160a01b038216036122475760405162461bcd60e51b815260206004820152601760248201527f43616e6e6f74207472616e7366657220746f2073656c660000000000000000006044820152606401610491565b600180546001600160a01b0319166001600160a01b0383811691821790925560008054604051929316917fed8889f560326eb138920d842192f0eb3dd22b4f139c87a2c57538e05bae12789190a350565b600081815260086020908152604080832060050180548251818502810185019093528083529192909190849084015b828210156123b357600084815260209081902060408051606081019091526003850290910180546001600160a01b03168252600181018054929391929184019161231090612e43565b80601f016020809104026020016040519081016040528092919081815260200182805461233c90612e43565b80156123895780601f1061235e57610100808354040283529160200191612389565b820191906000526020600020905b81548152906001019060200180831161236c57829003601f168201915b50505091835250506002919091015460ff16151560209182015290825260019290920191016122c7565b5050506000848152600560209081526040808320546004928390529083209091015493945090926123e4925061326a565b905060006064600b54836123f8919061326a565b6124029190613281565b9050600061241082846130bb565b905060008451826124219190613281565b905060005b85518110156124a75761245686828151811061244457612444612e2d565b60200260200101516000015183612541565b60008781526008602052604090206005018054600191908390811061247d5761247d612e2d565b60009182526020909120600390910201600201805460ff1916911515919091179055600101612426565b506124c36124bd6000546001600160a01b031690565b84612541565b83600c60008282546124d591906130bb565b909155505060008681526008602090815260409182902088815560028101805461ff00191661010017905560040183905581518881529081018390529081018490527f23100c62f7b18356431826aa536b4a362bcbfbbc856177cf79ce9c890b04116490606001610ad5565b6125496120c7565b6000826001600160a01b03168260405160006040518083038185875af1925050503d8060008114612596576040519150601f19603f3d011682016040523d82523d6000602084013e61259b565b606091505b50509050806125a957600080fd5b506104a46001600355565b6040518061018001604052806000815260200160608152602001606081526020016060815260200160008152602001600081526020016000815260200160001515815260200160006001600160a01b0316815260200160008152602001600081526020016000151581525090565b828054828255906000526020600020908101928215612668579160200282015b8281111561266857825182906126589082612ecc565b5091602001919060010190612642565b50611aac9291506126bb565b8280548282559060005260206000209081019282156126af579160200282015b828111156126af578251825591602001919060010190612694565b50611aac9291506126d8565b80821115611aac5760006126cf82826126ed565b506001016126bb565b5b80821115611aac57600081556001016126d9565b5080546126f990612e43565b6000825580601f10612709575050565b601f016020900490600052602060002090810190611e3791906126d8565b634e487b7160e01b600052604160045260246000fd5b604051601f8201601f191681016001600160401b038111828210171561276557612765612727565b604052919050565b60006001600160401b0382111561278657612786612727565b5060051b60200190565b600080604083850312156127a357600080fd5b8235915060208301356001600160401b038111156127c057600080fd5b8301601f810185136127d157600080fd5b80356127e46127df8261276d565b61273d565b8082825260208201915060208360051b85010192508783111561280657600080fd5b6020840193505b8284101561282857833582526020938401939091019061280d565b809450505050509250929050565b6000806040838503121561284957600080fd5b50508035926020909101359150565b600082601f83011261286957600080fd5b81356001600160401b0381111561288257612882612727565b612895601f8201601f191660200161273d565b8181528460208386010111156128aa57600080fd5b816020850160208301376000918101602001919091529392505050565b600080600080600060a086880312156128df57600080fd5b85356001600160401b038111156128f557600080fd5b61290188828901612858565b95505060208601356001600160401b0381111561291d57600080fd5b61292988828901612858565b94505060408601356001600160401b0381111561294557600080fd5b61295188828901612858565b9598949750949560608101359550608001359392505050565b6000806040838503121561297d57600080fd5b8235915060208301356001600160401b0381111561299a57600080fd5b8301601f810185136129ab57600080fd5b80356129b96127df8261276d565b8082825260208201915060208360051b8501019250878311156129db57600080fd5b602084015b83811015612a1c5780356001600160401b038111156129fe57600080fd5b612a0d8a602083890101612858565b845250602092830192016129e0565b50809450505050509250929050565b6000815180845260005b81811015612a5157602081850181015186830182015201612a35565b506000602082860101526020601f19601f83011685010191505092915050565b80518252600060208201516101806020850152612a92610180850182612a2b565b905060408301518482036040860152612aab8282612a2b565b91505060608301518482036060860152612ac58282612a2b565b9150506080830151608085015260a083015160a085015260c083015160c085015260e0830151612af960e086018215159052565b50610100830151612b166101008601826001600160a01b03169052565b50610120830151610120850152610140830151610140850152610160830151612b4461016086018215159052565b509392505050565b6000602082016020835280845180835260408501915060408160051b86010192506020860160005b82811015612ba557603f19878603018452612b90858351612a71565b94506020938401939190910190600101612b74565b50929695505050505050565b600060208284031215612bc357600080fd5b5035919050565b600082825180855260208501945060208160051b8301016020850160005b83811015612c4957848303601f19018852815180516001600160a01b03168452602080820151606091860182905290612c2390860182612a2b565b604092830151151595909201949094526020988901989093509190910190600101612be8565b50909695505050505050565b602081526000612c686020830184612bca565b9392505050565b600081518084526020840193506020830160005b82811015612ca1578151865260209586019590910190600101612c83565b5093949350505050565b60208152815160208201526020820151604082015260006040830151612cd5606084018215159052565b506060830151801515608084015250608083015160a083015260a083015160c083015260c083015161014060e0840152612d13610160840182612bca565b905060e0840151612d2961010085018215159052565b50610100840151838203601f1901610120850152612d478282612c6f565b915050610120840151612b4461014085018215159052565b600060208284031215612d7157600080fd5b81356001600160a01b0381168114612c6857600080fd5b602081526000612c686020830184612a71565b600082825180855260208501945060208160051b8301016020850160005b83811015612c4957601f19858403018852612dd5838351612a2b565b6020988901989093509190910190600101612db9565b602081526000612c686020830184612d9b565b634e487b7160e01b600052601160045260246000fd5b600060018201612e2657612e26612dfe565b5060010190565b634e487b7160e01b600052603260045260246000fd5b600181811c90821680612e5757607f821691505b602082108103612e7757634e487b7160e01b600052602260045260246000fd5b50919050565b601f821115612ec757806000526020600020601f840160051c81016020851015612ea45750805b601f840160051c820191505b81811015612ec45760008155600101612eb0565b50505b505050565b81516001600160401b03811115612ee557612ee5612727565b612ef981612ef38454612e43565b84612e7d565b6020601f821160018114612f305760008315612f155750848201515b600184901b600019600386901b1c198216175b855550612ec4565b600084815260208120601f198516915b82811015612f605787850151825560209485019460019092019101612f40565b5084821015612f7e5786840151600019600387901b60f8161c191681555b50505050600190811b01905550565b80820180821115611e2057611e20612dfe565b8381526001600160a01b03831660208201526060604082015281546000908190612fc981612e43565b8060608601526001821660008114612fe8576001811461300457613038565b60ff1983166080870152608082151560051b8701019350613038565b86600052602060002060005b8381101561302f57815488820160800152600190910190602001613010565b87016080019450505b5091979650505050505050565b86815260c06020820152600061305e60c0830188612a2b565b82810360408401526130708188612a2b565b905082810360608401526130848187612a2b565b6080840195909552505060a00152949350505050565b8281526040602082015260006130b36040830184612d9b565b949350505050565b81810381811115611e2057611e20612dfe565b60208152815160208201526020820151604082015261ffff604083015116606082015263ffffffff606083015116608082015263ffffffff60808301511660a0820152600060a083015160c0808401526130b360e0840182612a2b565b60006020828403121561313d57600080fd5b5051919050565b634e487b7160e01b600052601260045260246000fd5b60008261316957613169613144565b500690565b818103613179575050565b6131838254612e43565b6001600160401b0381111561319a5761319a612727565b6131a881612ef38454612e43565b6000601f8211600181146131da5760008315612f15575081850154600184901b600019600386901b1c19821617612f28565b600085815260209020601f19841690600086815260209020845b8381101561321457828601548255600195860195909101906020016131f4565b50858310156132325781850154600019600388901b60f8161c191681555b5050505050600190811b01905550565b8381528260208201526060604082015260006132616060830184612c6f565b95945050505050565b8082028115828204841417611e2057611e20612dfe565b60008261329057613290613144565b50049056fea2646970667358221220004aa5f44e0c12858de70f80bd27740bbd9fc6f44e9d18c0e05be0942e8cca2464736f6c634300081a0033","linkReferences":{}},"methodIdentifiers":{"acceptOwnership()":"79ba5097","buyTicket(uint256,uint256)":"298ec208","callbackGasLimit()":"24f74697","createLottery(string,string,string,uint256,uint256)":"34699f9f","getLotteries()":"bcc82ec4","getLottery(uint256)":"92e845f6","getLotteryLuckyNumbers(uint256)":"949ee752","getLotteryParticipants(uint256)":"68fb2eba","getLotteryResult(uint256)":"8772d2dd","getMyLotteries()":"63631861","importLuckyNumbers(uint256,string[])":"35ea2063","keyHash()":"61728f39","lastRequestId()":"fc2a88c3","owner()":"8da5cb5b","randomlySelectWinners(uint256,uint256)":"e2e43516","rawFulfillRandomWords(uint256,uint256[])":"1fe543e3","requestConfirmations()":"b0fb162f","s_subscriptionId()":"8ac00021","s_vrfCoordinator()":"9eccacf6","serviceBalance()":"70b261ae","servicePercent()":"e8d490f1","setCoordinator(address)":"8ea98117","transferOwnership(address)":"f2fde38b"},"id":40}