{"abi":[{"type":"constructor","inputs":[{"name":"_servicePercent","type":"uint256","internalType":"uint256"},{"name":"_subscriptionId","type":"uint256","internalType":"uint256"}],"stateMutability":"nonpayable"},{"type":"function","name":"acceptOwnership","inputs":[],"outputs":[],"stateMutability":"nonpayable"},{"type":"function","name":"buyTicket","inputs":[{"name":"id","type":"uint256","internalType":"uint256"},{"name":"luckyNumberId","type":"uint256","internalType":"uint256"}],"outputs":[],"stateMutability":"payable"},{"type":"function","name":"callbackGasLimit","inputs":[],"outputs":[{"name":"","type":"uint32","internalType":"uint32"}],"stateMutability":"view"},{"type":"function","name":"createLottery","inputs":[{"name":"title","type":"string","internalType":"string"},{"name":"description","type":"string","internalType":"string"},{"name":"image","type":"string","internalType":"string"},{"name":"prize","type":"uint256","internalType":"uint256"},{"name":"ticketPrice","type":"uint256","internalType":"uint256"},{"name":"expiresAt","type":"uint256","internalType":"uint256"}],"outputs":[],"stateMutability":"nonpayable"},{"type":"function","name":"getLotteries","inputs":[],"outputs":[{"name":"Lotteries","type":"tuple[]","internalType":"struct Lottery.LotteryStruct[]","components":[{"name":"id","type":"uint256","internalType":"uint256"},{"name":"title","type":"string","internalType":"string"},{"name":"description","type":"string","internalType":"string"},{"name":"image","type":"string","internalType":"string"},{"name":"prize","type":"uint256","internalType":"uint256"},{"name":"ticketPrice","type":"uint256","internalType":"uint256"},{"name":"participants","type":"uint256","internalType":"uint256"},{"name":"winners","type":"uint256","internalType":"uint256"},{"name":"drawn","type":"bool","internalType":"bool"},{"name":"owner","type":"address","internalType":"address"},{"name":"createdAt","type":"uint256","internalType":"uint256"},{"name":"expiresAt","type":"uint256","internalType":"uint256"},{"name":"hasLuckyNumbers","type":"bool","internalType":"bool"}]}],"stateMutability":"view"},{"type":"function","name":"getLottery","inputs":[{"name":"id","type":"uint256","internalType":"uint256"}],"outputs":[{"name":"","type":"tuple","internalType":"struct Lottery.LotteryStruct","components":[{"name":"id","type":"uint256","internalType":"uint256"},{"name":"title","type":"string","internalType":"string"},{"name":"description","type":"string","internalType":"string"},{"name":"image","type":"string","internalType":"string"},{"name":"prize","type":"uint256","internalType":"uint256"},{"name":"ticketPrice","type":"uint256","internalType":"uint256"},{"name":"participants","type":"uint256","internalType":"uint256"},{"name":"winners","type":"uint256","internalType":"uint256"},{"name":"drawn","type":"bool","internalType":"bool"},{"name":"owner","type":"address","internalType":"address"},{"name":"createdAt","type":"uint256","internalType":"uint256"},{"name":"expiresAt","type":"uint256","internalType":"uint256"},{"name":"hasLuckyNumbers","type":"bool","internalType":"bool"}]}],"stateMutability":"view"},{"type":"function","name":"getLotteryLuckyNumbers","inputs":[{"name":"id","type":"uint256","internalType":"uint256"}],"outputs":[{"name":"","type":"string[]","internalType":"string[]"}],"stateMutability":"view"},{"type":"function","name":"getLotteryParticipants","inputs":[{"name":"id","type":"uint256","internalType":"uint256"}],"outputs":[{"name":"","type":"tuple[]","internalType":"struct Lottery.ParticipantStruct[]","components":[{"name":"account","type":"address","internalType":"address"},{"name":"lotteryNumber","type":"string","internalType":"string"},{"name":"paid","type":"bool","internalType":"bool"}]}],"stateMutability":"view"},{"type":"function","name":"getLotteryResult","inputs":[{"name":"id","type":"uint256","internalType":"uint256"}],"outputs":[{"name":"","type":"tuple","internalType":"struct Lottery.LotteryResultStruct","components":[{"name":"id","type":"uint256","internalType":"uint256"},{"name":"requestId","type":"uint256","internalType":"uint256"},{"name":"completed","type":"bool","internalType":"bool"},{"name":"paidout","type":"bool","internalType":"bool"},{"name":"timestamp","type":"uint256","internalType":"uint256"},{"name":"sharePerWinner","type":"uint256","internalType":"uint256"},{"name":"winners","type":"tuple[]","internalType":"struct Lottery.ParticipantStruct[]","components":[{"name":"account","type":"address","internalType":"address"},{"name":"lotteryNumber","type":"string","internalType":"string"},{"name":"paid","type":"bool","internalType":"bool"}]},{"name":"exists","type":"bool","internalType":"bool"},{"name":"randomNumber","type":"uint256[]","internalType":"uint256[]"},{"name":"requestToChainlinkSent","type":"bool","internalType":"bool"}]}],"stateMutability":"view"},{"type":"function","name":"getMyLotteries","inputs":[],"outputs":[{"name":"","type":"tuple[]","internalType":"struct Lottery.LotteryStruct[]","components":[{"name":"id","type":"uint256","internalType":"uint256"},{"name":"title","type":"string","internalType":"string"},{"name":"description","type":"string","internalType":"string"},{"name":"image","type":"string","internalType":"string"},{"name":"prize","type":"uint256","internalType":"uint256"},{"name":"ticketPrice","type":"uint256","internalType":"uint256"},{"name":"participants","type":"uint256","internalType":"uint256"},{"name":"winners","type":"uint256","internalType":"uint256"},{"name":"drawn","type":"bool","internalType":"bool"},{"name":"owner","type":"address","internalType":"address"},{"name":"createdAt","type":"uint256","internalType":"uint256"},{"name":"expiresAt","type":"uint256","internalType":"uint256"},{"name":"hasLuckyNumbers","type":"bool","internalType":"bool"}]}],"stateMutability":"view"},{"type":"function","name":"importLuckyNumbers","inputs":[{"name":"id","type":"uint256","internalType":"uint256"},{"name":"luckyNumbers","type":"string[]","internalType":"string[]"}],"outputs":[],"stateMutability":"nonpayable"},{"type":"function","name":"keyHash","inputs":[],"outputs":[{"name":"","type":"bytes32","internalType":"bytes32"}],"stateMutability":"view"},{"type":"function","name":"lastRequestId","inputs":[],"outputs":[{"name":"","type":"uint256","internalType":"uint256"}],"stateMutability":"view"},{"type":"function","name":"owner","inputs":[],"outputs":[{"name":"","type":"address","internalType":"address"}],"stateMutability":"view"},{"type":"function","name":"randomlySelectWinners","inputs":[{"name":"id","type":"uint256","internalType":"uint256"},{"name":"numOfWinners","type":"uint256","internalType":"uint256"}],"outputs":[{"name":"requestId","type":"uint256","internalType":"uint256"}],"stateMutability":"nonpayable"},{"type":"function","name":"rawFulfillRandomWords","inputs":[{"name":"requestId","type":"uint256","internalType":"uint256"},{"name":"randomWords","type":"uint256[]","internalType":"uint256[]"}],"outputs":[],"stateMutability":"nonpayable"},{"type":"function","name":"requestConfirmations","inputs":[],"outputs":[{"name":"","type":"uint16","internalType":"uint16"}],"stateMutability":"view"},{"type":"function","name":"s_subscriptionId","inputs":[],"outputs":[{"name":"","type":"uint256","internalType":"uint256"}],"stateMutability":"view"},{"type":"function","name":"s_vrfCoordinator","inputs":[],"outputs":[{"name":"","type":"address","internalType":"contract IVRFCoordinatorV2Plus"}],"stateMutability":"view"},{"type":"function","name":"serviceBalance","inputs":[],"outputs":[{"name":"","type":"uint256","internalType":"uint256"}],"stateMutability":"view"},{"type":"function","name":"servicePercent","inputs":[],"outputs":[{"name":"","type":"uint256","internalType":"uint256"}],"stateMutability":"view"},{"type":"function","name":"setCoordinator","inputs":[{"name":"_vrfCoordinator","type":"address","internalType":"address"}],"outputs":[],"stateMutability":"nonpayable"},{"type":"function","name":"transferOwnership","inputs":[{"name":"to","type":"address","internalType":"address"}],"outputs":[],"stateMutability":"nonpayable"},{"type":"event","name":"BuyTicketEvent","inputs":[{"name":"id","type":"uint256","indexed":false,"internalType":"uint256"},{"name":"account","type":"address","indexed":false,"internalType":"address"},{"name":"lotteryNumber","type":"string","indexed":false,"internalType":"string"}],"anonymous":false},{"type":"event","name":"LotteryCreated","inputs":[{"name":"id","type":"uint256","indexed":false,"internalType":"uint256"},{"name":"title","type":"string","indexed":false,"internalType":"string"},{"name":"description","type":"string","indexed":false,"internalType":"string"},{"name":"image","type":"string","indexed":false,"internalType":"string"},{"name":"prize","type":"uint256","indexed":false,"internalType":"uint256"},{"name":"ticketPrice","type":"uint256","indexed":false,"internalType":"uint256"},{"name":"expiresAt","type":"uint256","indexed":false,"internalType":"uint256"}],"anonymous":false},{"type":"event","name":"LotteryLuckyNumbersImported","inputs":[{"name":"id","type":"uint256","indexed":false,"internalType":"uint256"},{"name":"luckyNumbers","type":"string[]","indexed":false,"internalType":"string[]"}],"anonymous":false},{"type":"event","name":"LotteryWinnerPaid","inputs":[{"name":"lotteryId","type":"uint256","indexed":false,"internalType":"uint256"},{"name":"amount","type":"uint256","indexed":false,"internalType":"uint256"},{"name":"platformShare","type":"uint256","indexed":false,"internalType":"uint256"}],"anonymous":false},{"type":"event","name":"LotteryWinnerRequestSent","inputs":[{"name":"lotteryId","type":"uint256","indexed":false,"internalType":"uint256"},{"name":"String","type":"uint256","indexed":false,"internalType":"uint256"},{"name":"numOfWinners","type":"uint32","indexed":false,"internalType":"uint32"}],"anonymous":false},{"type":"event","name":"LotteryWinnerSelected","inputs":[{"name":"lotteryId","type":"uint256","indexed":false,"internalType":"uint256"},{"name":"String","type":"uint256","indexed":false,"internalType":"uint256"},{"name":"randomWords","type":"uint256[]","indexed":false,"internalType":"uint256[]"}],"anonymous":false},{"type":"event","name":"OwnershipTransferRequested","inputs":[{"name":"from","type":"address","indexed":true,"internalType":"address"},{"name":"to","type":"address","indexed":true,"internalType":"address"}],"anonymous":false},{"type":"event","name":"OwnershipTransferred","inputs":[{"name":"from","type":"address","indexed":true,"internalType":"address"},{"name":"to","type":"address","indexed":true,"internalType":"address"}],"anonymous":false},{"type":"error","name":"OnlyCoordinatorCanFulfill","inputs":[{"name":"have","type":"address","internalType":"address"},{"name":"want","type":"address","internalType":"address"}]},{"type":"error","name":"OnlyOwnerOrCoordinator","inputs":[{"name":"have","type":"address","internalType":"address"},{"name":"owner","type":"address","internalType":"address"},{"name":"coordinator","type":"address","internalType":"address"}]},{"type":"error","name":"ReentrancyGuardReentrantCall","inputs":[]},{"type":"error","name":"ZeroAddress","inputs":[]}],"bytecode":{"object":"0x60806040527f787d74caea10b2b357790d5b5247c2f63d1d91572a9846f780606e4d953677ae600e55600f80546001600160501b03191666010003000f424017905534801561004d57600080fd5b506040516135a43803806135a483398101604081905261006c916101e7565b739ddfaca8183c41ad55329bdeed9f6a8d53168b1b33806000816100d75760405162461bcd60e51b815260206004820152601860248201527f43616e6e6f7420736574206f776e657220746f207a65726f000000000000000060448201526064015b60405180910390fd5b600080546001600160a01b0319166001600160a01b0384811691909117909155811615610107576101078161013e565b5050600280546001600160a01b0319166001600160a01b039390931692909217909155506001600355600b91909155600d5561020b565b336001600160a01b038216036101965760405162461bcd60e51b815260206004820152601760248201527f43616e6e6f74207472616e7366657220746f2073656c6600000000000000000060448201526064016100ce565b600180546001600160a01b0319166001600160a01b0383811691821790925560008054604051929316917fed8889f560326eb138920d842192f0eb3dd22b4f139c87a2c57538e05bae12789190a350565b600080604083850312156101fa57600080fd5b505080516020909101519092909150565b61338a8061021a6000396000f3fe6080604052600436106101405760003560e01c80638da5cb5b116100b6578063b0fb162f1161006f578063b0fb162f1461039e578063bcc82ec4146103d4578063e2e43516146103e9578063e8d490f114610409578063f2fde38b1461041f578063fc2a88c31461043f57600080fd5b80638da5cb5b146102b25780638ea98117146102e457806392e845f614610304578063949ee752146103315780639eccacf61461035e578063ad19c8391461037e57600080fd5b8063636318611161010857806363631861146101f557806368fb2eba1461021757806370b261ae1461024457806379ba50971461025a5780638772d2dd1461026f5780638ac000211461029c57600080fd5b80631fe543e31461014557806324f7469714610167578063298ec2081461019e57806335ea2063146101b157806361728f39146101d1575b600080fd5b34801561015157600080fd5b5061016561016036600461282f565b610455565b005b34801561017357600080fd5b50600f546101849063ffffffff1681565b60405163ffffffff90911681526020015b60405180910390f35b6101656101ac3660046128d5565b6104a8565b3480156101bd57600080fd5b506101656101cc366004612966565b6107b3565b3480156101dd57600080fd5b506101e7600e5481565b604051908152602001610195565b34801561020157600080fd5b5061020a610934565b6040516101959190612b54565b34801561022357600080fd5b50610237610232366004612bb9565b610cb4565b6040516101959190612c5d565b34801561025057600080fd5b506101e7600c5481565b34801561026657600080fd5b50610165610de0565b34801561027b57600080fd5b5061028f61028a366004612bb9565b610e8a565b6040516101959190612cb3565b3480156102a857600080fd5b506101e7600d5481565b3480156102be57600080fd5b506000546001600160a01b03165b6040516001600160a01b039091168152602001610195565b3480156102f057600080fd5b506101656102ff366004612d67565b6110d6565b34801561031057600080fd5b5061032461031f366004612bb9565b61116f565b6040516101959190612d90565b34801561033d57600080fd5b5061035161034c366004612bb9565b6113d1565b6040516101959190612df3565b34801561036a57600080fd5b506002546102cc906001600160a01b031681565b34801561038a57600080fd5b50610165610399366004612e06565b6114b2565b3480156103aa57600080fd5b50600f546103c190640100000000900461ffff1681565b60405161ffff9091168152602001610195565b3480156103e057600080fd5b5061020a611845565b3480156103f557600080fd5b506101e76104043660046128d5565b611b41565b34801561041557600080fd5b506101e7600b5481565b34801561042b57600080fd5b5061016561043a366004612d67565b611eb7565b34801561044b57600080fd5b506101e760105481565b6002546001600160a01b0316331461049a5760025460405163073e64fd60e21b81523360048201526001600160a01b0390911660248201526044015b60405180910390fd5b6104a48282611ecb565b5050565b6104b0612156565b600082815260076020908152604080832084845290915290205460ff161561051a5760405162461bcd60e51b815260206004820152601960248201527f4c75636b79206e756d62657220616c72656164792075736564000000000000006044820152606401610491565b6000828152600460205260409020600501543410156105855760405162461bcd60e51b815260206004820152602160248201527f696e73756666696369656e742065746865727320746f20627579207469636b656044820152601d60fa1b6064820152608401610491565b60008281526004602052604090206008015460ff16156105a457600080fd5b60008281526004602052604081206006018054916105c183612ec9565b9091555050600082815260056020908152604080832081516060810183523381528685526006845291909320805491928301918590811061060457610604612ee2565b90600052602060002001805461061990612ef8565b80601f016020809104026020016040519081016040528092919081815260200182805461064590612ef8565b80156106925780601f1061066757610100808354040283529160200191610692565b820191906000526020600020905b81548152906001019060200180831161067557829003601f168201915b50505091835250506000602091820181905283546001808201865594825290829020835160039092020180546001600160a01b0319166001600160a01b039092169190911781559082015191929091908201906106ef9082612f81565b506040918201516002909101805491151560ff19928316179055600084815260076020908152838220858352905291822080549091166001179055600c805434929061073c908490613042565b9091555050600082815260066020526040902080547fb038c33b89212f7a1829dcd93ab75ac1efd79ffe1cb2177b3573d1901b96de609184913391908590811061078857610788612ee2565b906000526020600020016040516107a193929190613055565b60405180910390a16104a46001600355565b60008151116108045760405162461bcd60e51b815260206004820152601c60248201527f4c75636b79206e756d626572732063616e6e6f74206265207a65726f000000006044820152606401610491565b60008281526004602052604090206008015461010090046001600160a01b031633146108685760405162461bcd60e51b8152602060048201526013602482015272556e617574686f72697a656420656e7469747960681b6044820152606401610491565b6000828152600660205260409020546001116108ba5760405162461bcd60e51b8152602060048201526011602482015270105b1c9958591e4819d95b995c985d1959607a1b6044820152606401610491565b600082815260066020908152604090912082516108d99284019061264c565b5060008281526004602052604090819020600b01805460ff19166001179055517ff12520cc42a124dbda697c7bebc19d583fec057b0ad21f3ac39864a21b756ca99061092890849084906130fa565b60405180910390a15050565b6060600060015b600a54811161098b57600081815260046020526040902060080154336101009091046001600160a01b031603610979578161097581612ec9565b9250505b8061098381612ec9565b91505061093b565b506000816001600160401b038111156109a6576109a66127c6565b6040519080825280602002602001820160405280156109df57816020015b6109cc61269e565b8152602001906001900390816109c45790505b509050600060015b600a548111610cab57600081815260046020526040902060080154336101009091046001600160a01b031603610c995760046000828152602001908152602001600020604051806101a001604052908160008201548152602001600182018054610a5090612ef8565b80601f0160208091040260200160405190810160405280929190818152602001828054610a7c90612ef8565b8015610ac95780601f10610a9e57610100808354040283529160200191610ac9565b820191906000526020600020905b815481529060010190602001808311610aac57829003601f168201915b50505050508152602001600282018054610ae290612ef8565b80601f0160208091040260200160405190810160405280929190818152602001828054610b0e90612ef8565b8015610b5b5780601f10610b3057610100808354040283529160200191610b5b565b820191906000526020600020905b815481529060010190602001808311610b3e57829003601f168201915b50505050508152602001600382018054610b7490612ef8565b80601f0160208091040260200160405190810160405280929190818152602001828054610ba090612ef8565b8015610bed5780601f10610bc257610100808354040283529160200191610bed565b820191906000526020600020905b815481529060010190602001808311610bd057829003601f168201915b505050918352505060048201546020820152600582015460408201526006820154606082015260078201546080820152600882015460ff808216151560a08401526001600160a01b03610100928390041660c0840152600984015460e0840152600a84015491830191909152600b909201549091161515610120909101528351849084908110610c7f57610c7f612ee2565b60200260200101819052508180610c9590612ec9565b9250505b80610ca381612ec9565b9150506109e7565b50909392505050565b606060056000838152602001908152602001600020805480602002602001604051908101604052809291908181526020016000905b82821015610dd557600084815260209081902060408051606081019091526003850290910180546001600160a01b031682526001810180549293919291840191610d3290612ef8565b80601f0160208091040260200160405190810160405280929190818152602001828054610d5e90612ef8565b8015610dab5780601f10610d8057610100808354040283529160200191610dab565b820191906000526020600020905b815481529060010190602001808311610d8e57829003601f168201915b50505091835250506002919091015460ff1615156020918201529082526001929092019101610ce9565b505050509050919050565b6001546001600160a01b03163314610e335760405162461bcd60e51b815260206004820152601660248201527526bab9ba10313290383937b837b9b2b21037bbb732b960511b6044820152606401610491565b60008054336001600160a01b0319808316821784556001805490911690556040516001600160a01b0390921692909183917f8be0079c531659141344cd1fd0a4f28419497f9722a3daafe3b4186f6b6457e091a350565b610ee86040518061014001604052806000815260200160008152602001600015158152602001600015158152602001600081526020016000815260200160608152602001600015158152602001606081526020016000151581525090565b600082815260086020908152604080832081516101408101835281548152600182015481850152600282015460ff808216151583860152610100909104161515606082015260038201546080820152600482015460a08201526005820180548451818702810187019095528085529195929460c0870194939192919084015b8282101561105357600084815260209081902060408051606081019091526003850290910180546001600160a01b031682526001810180549293919291840191610fb090612ef8565b80601f0160208091040260200160405190810160405280929190818152602001828054610fdc90612ef8565b80156110295780601f10610ffe57610100808354040283529160200191611029565b820191906000526020600020905b81548152906001019060200180831161100c57829003601f168201915b50505091835250506002919091015460ff1615156020918201529082526001929092019101610f67565b50505090825250600682015460ff16151560208083019190915260078301805460408051828502810185018252828152940193928301828280156110b657602002820191906000526020600020905b8154815260200190600101908083116110a2575b50505091835250506008919091015460ff16151560209091015292915050565b6000546001600160a01b031633148015906110fc57506002546001600160a01b03163314155b1561114d57336111146000546001600160a01b031690565b60025460405163061db9c160e01b81526001600160a01b0393841660048201529183166024830152919091166044820152606401610491565b600280546001600160a01b0319166001600160a01b0392909216919091179055565b61117761269e565b60046000838152602001908152602001600020604051806101a0016040529081600082015481526020016001820180546111b090612ef8565b80601f01602080910402602001604051908101604052809291908181526020018280546111dc90612ef8565b80156112295780601f106111fe57610100808354040283529160200191611229565b820191906000526020600020905b81548152906001019060200180831161120c57829003601f168201915b5050505050815260200160028201805461124290612ef8565b80601f016020809104026020016040519081016040528092919081815260200182805461126e90612ef8565b80156112bb5780601f10611290576101008083540402835291602001916112bb565b820191906000526020600020905b81548152906001019060200180831161129e57829003601f168201915b505050505081526020016003820180546112d490612ef8565b80601f016020809104026020016040519081016040528092919081815260200182805461130090612ef8565b801561134d5780601f106113225761010080835404028352916020019161134d565b820191906000526020600020905b81548152906001019060200180831161133057829003601f168201915b505050918352505060048201546020820152600582015460408201526006820154606082015260078201546080820152600882015460ff808216151560a08401526001600160a01b03610100928390041660c0840152600984015460e0840152600a84015491830191909152600b9092015490911615156101209091015292915050565b606060066000838152602001908152602001600020805480602002602001604051908101604052809291908181526020016000905b82821015610dd557838290600052602060002001805461142590612ef8565b80601f016020809104026020016040519081016040528092919081815260200182805461145190612ef8565b801561149e5780601f106114735761010080835404028352916020019161149e565b820191906000526020600020905b81548152906001019060200180831161148157829003601f168201915b505050505081526020019060010190611406565b60008651116114fb5760405162461bcd60e51b81526020600482015260156024820152747469746c652063616e6e6f7420626520656d70747960581b6044820152606401610491565b600085511161154c5760405162461bcd60e51b815260206004820152601b60248201527f6465736372697074696f6e2063616e6e6f7420626520656d70747900000000006044820152606401610491565b60008451116115955760405162461bcd60e51b8152602060048201526015602482015274696d6167652063616e6e6f7420626520656d70747960581b6044820152606401610491565b600083116115dc5760405162461bcd60e51b81526020600482015260146024820152737072697a652063616e6e6f74206265207a65726f60601b6044820152606401610491565b6000821161162c5760405162461bcd60e51b815260206004820152601a60248201527f7469636b657450726963652063616e6e6f74206265207a65726f0000000000006044820152606401610491565b611634612180565b81116116925760405162461bcd60e51b815260206004820152602760248201527f65787069726541742063616e6e6f74206265206c657373207468616e207468656044820152662066757475726560c81b6064820152608401610491565b61169c600a61219b565b6116a461269e565b600a5481526020810187905260408101869052606081018590526080810184905260a08101839052336101208201526116db612180565b610140820152610160810182905280516000908152600460209081526040909120825181559082015182919060018201906117169082612f81565b506040820151600282019061172b9082612f81565b50606082015160038201906117409082612f81565b50608082810151600483015560a080840151600584015560c0840151600684015560e08401516007840155610100808501516008850180546101208801516001600160a81b0319909116921515610100600160a81b031916929092176001600160a01b03909216909202179055610140840151600984015561016080850151600a85015561018090940151600b909301805460ff19169315159390931790925583516020850151604080870151606088015194880151958801519688015191517f46f2aa037dfff55981f6b9832d70db45eeb7d9a4f3a8b044d15685517e39ac65976118349795969495929493909161311b565b60405180910390a150505050505050565b6060611850600a5490565b6001600160401b03811115611867576118676127c6565b6040519080825280602002602001820160405280156118a057816020015b61188d61269e565b8152602001906001900390816118855790505b50905060015b600a548111611b3d5760046000828152602001908152602001600020604051806101a0016040529081600082015481526020016001820180546118e890612ef8565b80601f016020809104026020016040519081016040528092919081815260200182805461191490612ef8565b80156119615780601f1061193657610100808354040283529160200191611961565b820191906000526020600020905b81548152906001019060200180831161194457829003601f168201915b5050505050815260200160028201805461197a90612ef8565b80601f01602080910402602001604051908101604052809291908181526020018280546119a690612ef8565b80156119f35780601f106119c8576101008083540402835291602001916119f3565b820191906000526020600020905b8154815290600101906020018083116119d657829003601f168201915b50505050508152602001600382018054611a0c90612ef8565b80601f0160208091040260200160405190810160405280929190818152602001828054611a3890612ef8565b8015611a855780601f10611a5a57610100808354040283529160200191611a85565b820191906000526020600020905b815481529060010190602001808311611a6857829003601f168201915b505050918352505060048201546020820152600582015460408201526006820154606082015260078201546080820152600882015460ff808216151560a08401526001600160a01b03610100928390041660c0840152600984015460e0840152600a84015491830191909152600b9092015490911615156101209091015282611b0f60018461317a565b81518110611b1f57611b1f612ee2565b60200260200101819052508080611b3590612ec9565b9150506118a6565b5090565b6000611b4b612156565b60008381526004602052604090206008015461010090046001600160a01b0316331480611b8257506000546001600160a01b031633145b611bc45760405162461bcd60e51b8152602060048201526013602482015272556e617574686f72697a656420656e7469747960681b6044820152606401610491565b60008381526008602052604090206002015460ff1615611c325760405162461bcd60e51b815260206004820152602360248201527f4c6f7474657279206861766520616c7265616479206265656e20636f6d706c656044820152621d195960ea1b6064820152608401610491565b600083815260056020526040902054821115611ca95760405162461bcd60e51b815260206004820152603060248201527f4e756d626572206f662077696e6e6572732065786365656473206e756d62657260448201526f206f66207061727469636970616e747360801b6064820152608401610491565b6000838152600860208190526040909120015460ff1615611d165760405162461bcd60e51b815260206004820152602160248201527f5265717565737420746f20636861696e6c696e6b20616c72656164792073656e6044820152601d60fa1b6064820152608401610491565b6002546040805160c081018252600e548152600d54602080830191909152600f5461ffff6401000000008204168385015263ffffffff9081166060840152861660808301528251908101909252600082526001600160a01b0390921691639b1c385e9160a0820190611d87906121b8565b8152506040518263ffffffff1660e01b8152600401611da6919061318d565b6020604051808303816000875af1158015611dc5573d6000803e3d6000fd5b505050506040513d601f19601f82011682018060405250810190611de991906131ea565b600084815260086020818152604080842088815560028101805461ffff191690556004810185905560068101805460ff199081166001908117909255818301889055919094018054909116841790558051808201825288815280830186815286865260098452948290209051815593519390920192909255805186815291820183905263ffffffff8516908201529091507f2bf8ed61172c3c3acdd1d362866fc15c2d4bc4bc06734dfc6f4f37ad4bff388e9060600160405180910390a1611eb16001600355565b92915050565b611ebf612229565b611ec88161227e565b50565b6000828152600960205260409020600101548214611f2b5760405162461bcd60e51b815260206004820152601860248201527f4572726f723a2052657175657374206e6f7420666f756e6400000000000000006044820152606401610491565b60008281526009602052604081205482519091906001600160401b03811115611f5657611f566127c6565b604051908082528060200260200182016040528015611f7f578160200160208202803683370190505b50905060005b83518110156120a8576000838152600560205260409020548451859083908110611fb157611fb1612ee2565b6020026020010151611fc39190613219565b828281518110611fd557611fd5612ee2565b602090810291909101810191909152600084815260088252604080822060059384905291208451929091019184908490811061201357612013612ee2565b60200260200101518154811061202b5761202b612ee2565b6000918252602080832084546001818101875595855291909320600392830290930180549190920290920180546001600160a01b0319166001600160a01b0390931692909217825591818101906120849084018261322d565b506002918201549101805460ff191660ff9092161515919091179055600101611f85565b506000828152600860208181526040808420600281018054600160ff199182168117909255426003840155600583015460048652939096206007808201949094558501805490961617909455918152855161210b93929092019190860190612713565b5061211582612327565b7f68c2f849c1d27050ebe6de60f1dc43a424265a179fab9b4aa6237f95e1a4e1e382858560405161214893929190613301565b60405180910390a150505050565b60026003540361217957604051633ee5aeb560e01b815260040160405180910390fd5b6002600355565b60008061218f426103e8613329565b611eb1906103e8613042565b60018160000160008282546121b09190613042565b909155505050565b60607f92fd13387c7fe7befbc38d303d6468778fb9731bc4583f17d92989c6fcfdeaaa826040516024016121f191511515815260200190565b60408051601f198184030181529190526020810180516001600160e01b03166001600160e01b03199093169290921790915292915050565b6000546001600160a01b0316331461227c5760405162461bcd60e51b815260206004820152601660248201527527b7363c9031b0b63630b1363290313c9037bbb732b960511b6044820152606401610491565b565b336001600160a01b038216036122d65760405162461bcd60e51b815260206004820152601760248201527f43616e6e6f74207472616e7366657220746f2073656c660000000000000000006044820152606401610491565b600180546001600160a01b0319166001600160a01b0383811691821790925560008054604051929316917fed8889f560326eb138920d842192f0eb3dd22b4f139c87a2c57538e05bae12789190a350565b600081815260086020908152604080832060050180548251818502810185019093528083529192909190849084015b8282101561244257600084815260209081902060408051606081019091526003850290910180546001600160a01b03168252600181018054929391929184019161239f90612ef8565b80601f01602080910402602001604051908101604052809291908181526020018280546123cb90612ef8565b80156124185780601f106123ed57610100808354040283529160200191612418565b820191906000526020600020905b8154815290600101906020018083116123fb57829003601f168201915b50505091835250506002919091015460ff1615156020918201529082526001929092019101612356565b505050600084815260056020818152604080842054600490925283209091015493945090926124719250613329565b905060006064600b54836124859190613329565b61248f9190613340565b9050600061249d828461317a565b905060008451826124ae9190613340565b905060005b8551811015612534576124e38682815181106124d1576124d1612ee2565b602002602001015160000151836125d9565b60008781526008602052604090206005018054600191908390811061250a5761250a612ee2565b60009182526020909120600390910201600201805460ff19169115159190911790556001016124b3565b5061255061254a6000546001600160a01b031690565b846125d9565b83600c6000828254612562919061317a565b909155505060008681526008602090815260409182902088815560028101805461ff00191661010017905560040183905581518881529081018390529081018490527f23100c62f7b18356431826aa536b4a362bcbfbbc856177cf79ce9c890b0411649060600160405180910390a1505050505050565b6125e1612156565b6000826001600160a01b03168260405160006040518083038185875af1925050503d806000811461262e576040519150601f19603f3d011682016040523d82523d6000602084013e612633565b606091505b505090508061264157600080fd5b506104a46001600355565b828054828255906000526020600020908101928215612692579160200282015b8281111561269257825182906126829082612f81565b509160200191906001019061266c565b50611b3d92915061275a565b604051806101a00160405280600081526020016060815260200160608152602001606081526020016000815260200160008152602001600081526020016000815260200160001515815260200160006001600160a01b0316815260200160008152602001600081526020016000151581525090565b82805482825590600052602060002090810192821561274e579160200282015b8281111561274e578251825591602001919060010190612733565b50611b3d929150612777565b80821115611b3d57600061276e828261278c565b5060010161275a565b5b80821115611b3d5760008155600101612778565b50805461279890612ef8565b6000825580601f106127a8575050565b601f016020900490600052602060002090810190611ec89190612777565b634e487b7160e01b600052604160045260246000fd5b604051601f8201601f191681016001600160401b0381118282101715612804576128046127c6565b604052919050565b60006001600160401b03821115612825576128256127c6565b5060051b60200190565b6000806040838503121561284257600080fd5b8235915060208301356001600160401b0381111561285f57600080fd5b8301601f8101851361287057600080fd5b803561288361287e8261280c565b6127dc565b8082825260208201915060208360051b8501019250878311156128a557600080fd5b6020840193505b828410156128c75783358252602093840193909101906128ac565b809450505050509250929050565b600080604083850312156128e857600080fd5b50508035926020909101359150565b600082601f83011261290857600080fd5b81356001600160401b03811115612921576129216127c6565b612934601f8201601f19166020016127dc565b81815284602083860101111561294957600080fd5b816020850160208301376000918101602001919091529392505050565b6000806040838503121561297957600080fd5b8235915060208301356001600160401b0381111561299657600080fd5b8301601f810185136129a757600080fd5b80356129b561287e8261280c565b8082825260208201915060208360051b8501019250878311156129d757600080fd5b602084015b83811015612a185780356001600160401b038111156129fa57600080fd5b612a098a6020838901016128f7565b845250602092830192016129dc565b50809450505050509250929050565b6000815180845260005b81811015612a4d57602081850181015186830182015201612a31565b506000602082860101526020601f19601f83011685010191505092915050565b80518252600060208201516101a06020850152612a8e6101a0850182612a27565b905060408301518482036040860152612aa78282612a27565b91505060608301518482036060860152612ac18282612a27565b9150506080830151608085015260a083015160a085015260c083015160c085015260e083015160e0850152610100830151612b0161010086018215159052565b50610120830151612b1e6101208601826001600160a01b03169052565b50610140830151610140850152610160830151610160850152610180830151612b4c61018086018215159052565b509392505050565b6000602082016020835280845180835260408501915060408160051b86010192506020860160005b82811015612bad57603f19878603018452612b98858351612a6d565b94506020938401939190910190600101612b7c565b50929695505050505050565b600060208284031215612bcb57600080fd5b5035919050565b600082825180855260208501945060208160051b8301016020850160005b83811015612c5157848303601f19018852815180516001600160a01b03168452602080820151606091860182905290612c2b90860182612a27565b604092830151151595909201949094526020988901989093509190910190600101612bf0565b50909695505050505050565b602081526000612c706020830184612bd2565b9392505050565b600081518084526020840193506020830160005b82811015612ca9578151865260209586019590910190600101612c8b565b5093949350505050565b60208152815160208201526020820151604082015260006040830151612cdd606084018215159052565b506060830151801515608084015250608083015160a083015260a083015160c083015260c083015161014060e0840152612d1b610160840182612bd2565b905060e0840151612d3161010085018215159052565b50610100840151838203601f1901610120850152612d4f8282612c77565b915050610120840151612b4c61014085018215159052565b600060208284031215612d7957600080fd5b81356001600160a01b0381168114612c7057600080fd5b602081526000612c706020830184612a6d565b600082825180855260208501945060208160051b8301016020850160005b83811015612c5157601f19858403018852612ddd838351612a27565b6020988901989093509190910190600101612dc1565b602081526000612c706020830184612da3565b60008060008060008060c08789031215612e1f57600080fd5b86356001600160401b03811115612e3557600080fd5b612e4189828a016128f7565b96505060208701356001600160401b03811115612e5d57600080fd5b612e6989828a016128f7565b95505060408701356001600160401b03811115612e8557600080fd5b612e9189828a016128f7565b969995985095966060810135965060808101359560a090910135945092505050565b634e487b7160e01b600052601160045260246000fd5b600060018201612edb57612edb612eb3565b5060010190565b634e487b7160e01b600052603260045260246000fd5b600181811c90821680612f0c57607f821691505b602082108103612f2c57634e487b7160e01b600052602260045260246000fd5b50919050565b601f821115612f7c57806000526020600020601f840160051c81016020851015612f595750805b601f840160051c820191505b81811015612f795760008155600101612f65565b50505b505050565b81516001600160401b03811115612f9a57612f9a6127c6565b612fae81612fa88454612ef8565b84612f32565b6020601f821160018114612fe55760008315612fca5750848201515b600184901b600019600386901b1c198216175b855550612f79565b600084815260208120601f198516915b828110156130155787850151825560209485019460019092019101612ff5565b50848210156130335786840151600019600387901b60f8161c191681555b50505050600190811b01905550565b80820180821115611eb157611eb1612eb3565b8381526001600160a01b0383166020820152606060408201528154600090819061307e81612ef8565b806060860152600182166000811461309d57600181146130b9576130ed565b60ff1983166080870152608082151560051b87010193506130ed565b86600052602060002060005b838110156130e4578154888201608001526001909101906020016130c5565b87016080019450505b5091979650505050505050565b8281526040602082015260006131136040830184612da3565b949350505050565b87815260e06020820152600061313460e0830189612a27565b82810360408401526131468189612a27565b9050828103606084015261315a8188612a27565b6080840196909652505060a081019290925260c090910152949350505050565b81810381811115611eb157611eb1612eb3565b60208152815160208201526020820151604082015261ffff604083015116606082015263ffffffff606083015116608082015263ffffffff60808301511660a0820152600060a083015160c08084015261311360e0840182612a27565b6000602082840312156131fc57600080fd5b5051919050565b634e487b7160e01b600052601260045260246000fd5b60008261322857613228613203565b500690565b818103613238575050565b6132428254612ef8565b6001600160401b03811115613259576132596127c6565b61326781612fa88454612ef8565b6000601f8211600181146132995760008315612fca575081850154600184901b600019600386901b1c19821617612fdd565b600085815260209020601f19841690600086815260209020845b838110156132d357828601548255600195860195909101906020016132b3565b50858310156132f15781850154600019600388901b60f8161c191681555b5050505050600190811b01905550565b8381528260208201526060604082015260006133206060830184612c77565b95945050505050565b8082028115828204841417611eb157611eb1612eb3565b60008261334f5761334f613203565b50049056fea2646970667358221220702f20cb944c9a1d24c19fb211d6ca60cfaa4abbf3e100a2af50ce34793337db64736f6c634300081a0033","linkReferences":{}},"methodIdentifiers":{"acceptOwnership()":"79ba5097","buyTicket(uint256,uint256)":"298ec208","callbackGasLimit()":"24f74697","createLottery(string,string,string,uint256,uint256,uint256)":"ad19c839","getLotteries()":"bcc82ec4","getLottery(uint256)":"92e845f6","getLotteryLuckyNumbers(uint256)":"949ee752","getLotteryParticipants(uint256)":"68fb2eba","getLotteryResult(uint256)":"8772d2dd","getMyLotteries()":"63631861","importLuckyNumbers(uint256,string[])":"35ea2063","keyHash()":"61728f39","lastRequestId()":"fc2a88c3","owner()":"8da5cb5b","randomlySelectWinners(uint256,uint256)":"e2e43516","rawFulfillRandomWords(uint256,uint256[])":"1fe543e3","requestConfirmations()":"b0fb162f","s_subscriptionId()":"8ac00021","s_vrfCoordinator()":"9eccacf6","serviceBalance()":"70b261ae","servicePercent()":"e8d490f1","setCoordinator(address)":"8ea98117","transferOwnership(address)":"f2fde38b"},"id":40}